{
  "contractName": "HelloWorld",
  "abi": [
    {
      "inputs": [],
      "stateMutability": "nonpayable",
      "type": "constructor"
    },
    {
      "anonymous": false,
      "inputs": [
        {
          "indexed": true,
          "internalType": "address",
          "name": "owner",
          "type": "address"
        },
        {
          "indexed": true,
          "internalType": "address",
          "name": "approved",
          "type": "address"
        },
        {
          "indexed": true,
          "internalType": "uint256",
          "name": "tokenId",
          "type": "uint256"
        }
      ],
      "name": "Approval",
      "type": "event"
    },
    {
      "anonymous": false,
      "inputs": [
        {
          "indexed": true,
          "internalType": "address",
          "name": "owner",
          "type": "address"
        },
        {
          "indexed": true,
          "internalType": "address",
          "name": "operator",
          "type": "address"
        },
        {
          "indexed": false,
          "internalType": "bool",
          "name": "approved",
          "type": "bool"
        }
      ],
      "name": "ApprovalForAll",
      "type": "event"
    },
    {
      "anonymous": false,
      "inputs": [
        {
          "indexed": false,
          "internalType": "address",
          "name": "buyer",
          "type": "address"
        },
        {
          "indexed": false,
          "internalType": "address",
          "name": "seller",
          "type": "address"
        },
        {
          "indexed": false,
          "internalType": "uint256",
          "name": "saleId",
          "type": "uint256"
        }
      ],
      "name": "BoughtTreeOnSale",
      "type": "event"
    },
    {
      "anonymous": false,
      "inputs": [
        {
          "indexed": false,
          "internalType": "uint256",
          "name": "saleId",
          "type": "uint256"
        }
      ],
      "name": "SaleEnded",
      "type": "event"
    },
    {
      "anonymous": false,
      "inputs": [
        {
          "indexed": true,
          "internalType": "address",
          "name": "from",
          "type": "address"
        },
        {
          "indexed": true,
          "internalType": "address",
          "name": "to",
          "type": "address"
        },
        {
          "indexed": true,
          "internalType": "uint256",
          "name": "tokenId",
          "type": "uint256"
        }
      ],
      "name": "Transfer",
      "type": "event"
    },
    {
      "anonymous": false,
      "inputs": [
        {
          "indexed": false,
          "internalType": "address",
          "name": "saler",
          "type": "address"
        },
        {
          "indexed": false,
          "internalType": "uint256",
          "name": "TreeId",
          "type": "uint256"
        }
      ],
      "name": "TreePutOnSale",
      "type": "event"
    },
    {
      "anonymous": false,
      "inputs": [
        {
          "indexed": false,
          "internalType": "address",
          "name": "requesting",
          "type": "address"
        }
      ],
      "name": "TreeRequested",
      "type": "event"
    },
    {
      "inputs": [
        {
          "internalType": "address",
          "name": "to",
          "type": "address"
        },
        {
          "internalType": "uint256",
          "name": "tokenId",
          "type": "uint256"
        }
      ],
      "name": "approve",
      "outputs": [],
      "stateMutability": "nonpayable",
      "type": "function"
    },
    {
      "inputs": [
        {
          "internalType": "address",
          "name": "owner",
          "type": "address"
        }
      ],
      "name": "balanceOf",
      "outputs": [
        {
          "internalType": "uint256",
          "name": "",
          "type": "uint256"
        }
      ],
      "stateMutability": "view",
      "type": "function",
      "constant": true
    },
    {
      "inputs": [
        {
          "internalType": "uint256",
          "name": "tokenId",
          "type": "uint256"
        }
      ],
      "name": "getApproved",
      "outputs": [
        {
          "internalType": "address",
          "name": "",
          "type": "address"
        }
      ],
      "stateMutability": "view",
      "type": "function",
      "constant": true
    },
    {
      "inputs": [
        {
          "internalType": "address",
          "name": "owner",
          "type": "address"
        },
        {
          "internalType": "address",
          "name": "operator",
          "type": "address"
        }
      ],
      "name": "isApprovedForAll",
      "outputs": [
        {
          "internalType": "bool",
          "name": "",
          "type": "bool"
        }
      ],
      "stateMutability": "view",
      "type": "function",
      "constant": true
    },
    {
      "inputs": [
        {
          "internalType": "uint256",
          "name": "",
          "type": "uint256"
        }
      ],
      "name": "isOnSale",
      "outputs": [
        {
          "internalType": "bool",
          "name": "",
          "type": "bool"
        }
      ],
      "stateMutability": "view",
      "type": "function",
      "constant": true
    },
    {
      "inputs": [],
      "name": "name",
      "outputs": [
        {
          "internalType": "string",
          "name": "",
          "type": "string"
        }
      ],
      "stateMutability": "view",
      "type": "function",
      "constant": true
    },
    {
      "inputs": [],
      "name": "newTokenId",
      "outputs": [
        {
          "internalType": "uint256",
          "name": "",
          "type": "uint256"
        }
      ],
      "stateMutability": "view",
      "type": "function",
      "constant": true
    },
    {
      "inputs": [],
      "name": "owner",
      "outputs": [
        {
          "internalType": "address payable",
          "name": "",
          "type": "address"
        }
      ],
      "stateMutability": "view",
      "type": "function",
      "constant": true
    },
    {
      "inputs": [
        {
          "internalType": "uint256",
          "name": "tokenId",
          "type": "uint256"
        }
      ],
      "name": "ownerOf",
      "outputs": [
        {
          "internalType": "address",
          "name": "",
          "type": "address"
        }
      ],
      "stateMutability": "view",
      "type": "function",
      "constant": true
    },
    {
      "inputs": [
        {
          "internalType": "address",
          "name": "",
          "type": "address"
        }
      ],
      "name": "ownerToFunds",
      "outputs": [
        {
          "internalType": "uint256",
          "name": "",
          "type": "uint256"
        }
      ],
      "stateMutability": "view",
      "type": "function",
      "constant": true
    },
    {
      "inputs": [
        {
          "internalType": "uint256",
          "name": "",
          "type": "uint256"
        }
      ],
      "name": "requests",
      "outputs": [
        {
          "internalType": "address",
          "name": "requesting",
          "type": "address"
        },
        {
          "internalType": "bool",
          "name": "active",
          "type": "bool"
        }
      ],
      "stateMutability": "view",
      "type": "function",
      "constant": true
    },
    {
      "inputs": [
        {
          "internalType": "address",
          "name": "from",
          "type": "address"
        },
        {
          "internalType": "address",
          "name": "to",
          "type": "address"
        },
        {
          "internalType": "uint256",
          "name": "tokenId",
          "type": "uint256"
        }
      ],
      "name": "safeTransferFrom",
      "outputs": [],
      "stateMutability": "nonpayable",
      "type": "function"
    },
    {
      "inputs": [
        {
          "internalType": "address",
          "name": "from",
          "type": "address"
        },
        {
          "internalType": "address",
          "name": "to",
          "type": "address"
        },
        {
          "internalType": "uint256",
          "name": "tokenId",
          "type": "uint256"
        },
        {
          "internalType": "bytes",
          "name": "_data",
          "type": "bytes"
        }
      ],
      "name": "safeTransferFrom",
      "outputs": [],
      "stateMutability": "nonpayable",
      "type": "function"
    },
    {
      "inputs": [
        {
          "internalType": "uint256",
          "name": "",
          "type": "uint256"
        }
      ],
      "name": "sales",
      "outputs": [
        {
          "internalType": "address",
          "name": "owner",
          "type": "address"
        },
        {
          "internalType": "bool",
          "name": "active",
          "type": "bool"
        },
        {
          "internalType": "uint256",
          "name": "TreeId",
          "type": "uint256"
        },
        {
          "internalType": "uint256",
          "name": "valueWei",
          "type": "uint256"
        }
      ],
      "stateMutability": "view",
      "type": "function",
      "constant": true
    },
    {
      "inputs": [
        {
          "internalType": "address",
          "name": "operator",
          "type": "address"
        },
        {
          "internalType": "bool",
          "name": "approved",
          "type": "bool"
        }
      ],
      "name": "setApprovalForAll",
      "outputs": [],
      "stateMutability": "nonpayable",
      "type": "function"
    },
    {
      "inputs": [],
      "name": "symbol",
      "outputs": [
        {
          "internalType": "string",
          "name": "",
          "type": "string"
        }
      ],
      "stateMutability": "view",
      "type": "function",
      "constant": true
    },
    {
      "inputs": [
        {
          "internalType": "uint256",
          "name": "index",
          "type": "uint256"
        }
      ],
      "name": "tokenByIndex",
      "outputs": [
        {
          "internalType": "uint256",
          "name": "",
          "type": "uint256"
        }
      ],
      "stateMutability": "view",
      "type": "function",
      "constant": true
    },
    {
      "inputs": [
        {
          "internalType": "uint256",
          "name": "",
          "type": "uint256"
        }
      ],
      "name": "tokenIdToSaleId",
      "outputs": [
        {
          "internalType": "uint256",
          "name": "",
          "type": "uint256"
        }
      ],
      "stateMutability": "view",
      "type": "function",
      "constant": true
    },
    {
      "inputs": [
        {
          "internalType": "address",
          "name": "owner",
          "type": "address"
        },
        {
          "internalType": "uint256",
          "name": "index",
          "type": "uint256"
        }
      ],
      "name": "tokenOfOwnerByIndex",
      "outputs": [
        {
          "internalType": "uint256",
          "name": "",
          "type": "uint256"
        }
      ],
      "stateMutability": "view",
      "type": "function",
      "constant": true
    },
    {
      "inputs": [
        {
          "internalType": "uint256",
          "name": "tokenId",
          "type": "uint256"
        }
      ],
      "name": "tokenURI",
      "outputs": [
        {
          "internalType": "string",
          "name": "",
          "type": "string"
        }
      ],
      "stateMutability": "view",
      "type": "function",
      "constant": true
    },
    {
      "inputs": [],
      "name": "totalSupply",
      "outputs": [
        {
          "internalType": "uint256",
          "name": "",
          "type": "uint256"
        }
      ],
      "stateMutability": "view",
      "type": "function",
      "constant": true
    },
    {
      "inputs": [
        {
          "internalType": "address",
          "name": "from",
          "type": "address"
        },
        {
          "internalType": "address",
          "name": "to",
          "type": "address"
        },
        {
          "internalType": "uint256",
          "name": "tokenId",
          "type": "uint256"
        }
      ],
      "name": "transferFrom",
      "outputs": [],
      "stateMutability": "nonpayable",
      "type": "function"
    },
    {
      "inputs": [
        {
          "internalType": "uint256",
          "name": "",
          "type": "uint256"
        }
      ],
      "name": "trees",
      "outputs": [
        {
          "internalType": "string",
          "name": "genes",
          "type": "string"
        },
        {
          "internalType": "uint256",
          "name": "birthdate",
          "type": "uint256"
        }
      ],
      "stateMutability": "view",
      "type": "function",
      "constant": true
    },
    {
      "inputs": [],
      "name": "withdraw",
      "outputs": [],
      "stateMutability": "nonpayable",
      "type": "function"
    },
    {
      "inputs": [
        {
          "internalType": "uint256",
          "name": "_treeId",
          "type": "uint256"
        },
        {
          "internalType": "uint256",
          "name": "_valueWei",
          "type": "uint256"
        }
      ],
      "name": "putTreeOnSale",
      "outputs": [],
      "stateMutability": "nonpayable",
      "type": "function"
    },
    {
      "inputs": [
        {
          "internalType": "uint256",
          "name": "_saleId",
          "type": "uint256"
        }
      ],
      "name": "buyTree",
      "outputs": [],
      "stateMutability": "payable",
      "type": "function",
      "payable": true
    },
    {
      "inputs": [
        {
          "internalType": "uint256",
          "name": "_saleId",
          "type": "uint256"
        }
      ],
      "name": "endSale",
      "outputs": [],
      "stateMutability": "nonpayable",
      "type": "function"
    },
    {
      "inputs": [],
      "name": "requestTree",
      "outputs": [],
      "stateMutability": "payable",
      "type": "function",
      "payable": true
    },
    {
      "inputs": [
        {
          "internalType": "string",
          "name": "_genes",
          "type": "string"
        }
      ],
      "name": "mintTree",
      "outputs": [],
      "stateMutability": "nonpayable",
      "type": "function"
    },
    {
      "inputs": [
        {
          "internalType": "bytes4",
          "name": "interfaceId",
          "type": "bytes4"
        }
      ],
      "name": "supportsInterface",
      "outputs": [
        {
          "internalType": "bool",
          "name": "",
          "type": "bool"
        }
      ],
      "stateMutability": "view",
      "type": "function",
      "constant": true
    }
  ],
  "bytecode": "0x60806040526000801b600a553480156200001857600080fd5b506040518060400160405280600481526020017f54726565000000000000000000000000000000000000000000000000000000008152506040518060400160405280600381526020017f547265000000000000000000000000000000000000000000000000000000000081525081600090805190602001906200009d92919062000108565b508060019080519060200190620000b692919062000108565b50505033600c60006101000a81548173ffffffffffffffffffffffffffffffffffffffff021916908373ffffffffffffffffffffffffffffffffffffffff1602179055506000600b819055506200021c565b8280546200011690620001e7565b90600052602060002090601f0160209004810192826200013a576000855562000186565b82601f106200015557805160ff191683800117855562000186565b8280016001018555821562000186579182015b828111156200018557825182559160200191906001019062000168565b5b50905062000195919062000199565b5090565b5b80821115620001b45760008160009055506001016200019a565b5090565b7f4e487b7100000000000000000000000000000000000000000000000000000000600052602260045260246000fd5b600060028204905060018216806200020057607f821691505b602082108103620002165762000215620001b8565b5b50919050565b61480f806200022c6000396000f3fe6080604052600436106101cd5760003560e01c80637a508022116100f7578063ac12cf4c11610095578063ca24138f11610064578063ca24138f146106b6578063e985e9c5146106d2578063efac52471461070f578063f0f2805f1461074c576101cd565b8063ac12cf4c14610606578063b5f522f714610610578063b88d4fde14610650578063c87b56dd14610679576101cd565b8063957499b2116100d1578063957499b21461054c57806395d89b4114610589578063a22cb465146105b4578063a9cf3bbb146105dd576101cd565b80637a508022146104a557806381d12c58146104e35780638da5cb5b14610521576101cd565b80632f745c591161016f5780634f6ccce71161013e5780634f6ccce7146103c55780636352211e1461040257806370a082311461043f57806379f3b4811461047c576101cd565b80632f745c591461031d578063340754ed1461035a5780633ccfd60b1461038557806342842e0e1461039c576101cd565b8063081812fc116101ab578063081812fc14610263578063095ea7b3146102a057806318160ddd146102c957806323b872dd146102f4576101cd565b806301ffc9a7146101d257806304d1a8461461020f57806306fdde0314610238575b600080fd5b3480156101de57600080fd5b506101f960048036038101906101f49190613077565b610789565b60405161020691906130bf565b60405180910390f35b34801561021b57600080fd5b5061023660048036038101906102319190613110565b61079b565b005b34801561024457600080fd5b5061024d61098b565b60405161025a91906131d6565b60405180910390f35b34801561026f57600080fd5b5061028a60048036038101906102859190613110565b610a1d565b6040516102979190613239565b60405180910390f35b3480156102ac57600080fd5b506102c760048036038101906102c29190613280565b610aa2565b005b3480156102d557600080fd5b506102de610bb9565b6040516102eb91906132cf565b60405180910390f35b34801561030057600080fd5b5061031b600480360381019061031691906132ea565b610bc6565b005b34801561032957600080fd5b50610344600480360381019061033f9190613280565b610c26565b60405161035191906132cf565b60405180910390f35b34801561036657600080fd5b5061036f610ccb565b60405161037c91906132cf565b60405180910390f35b34801561039157600080fd5b5061039a610cd1565b005b3480156103a857600080fd5b506103c360048036038101906103be91906132ea565b610da4565b005b3480156103d157600080fd5b506103ec60048036038101906103e79190613110565b610dc4565b6040516103f991906132cf565b60405180910390f35b34801561040e57600080fd5b5061042960048036038101906104249190613110565b610e35565b6040516104369190613239565b60405180910390f35b34801561044b57600080fd5b506104666004803603810190610461919061333d565b610ee6565b60405161047391906132cf565b60405180910390f35b34801561048857600080fd5b506104a3600480360381019061049e919061336a565b610f9d565b005b3480156104b157600080fd5b506104cc60048036038101906104c79190613110565b611183565b6040516104da9291906133aa565b60405180910390f35b3480156104ef57600080fd5b5061050a60048036038101906105059190613110565b61123f565b6040516105189291906133da565b60405180910390f35b34801561052d57600080fd5b5061053661129c565b6040516105439190613424565b60405180910390f35b34801561055857600080fd5b50610573600480360381019061056e9190613110565b6112c2565b60405161058091906132cf565b60405180910390f35b34801561059557600080fd5b5061059e6112da565b6040516105ab91906131d6565b60405180910390f35b3480156105c057600080fd5b506105db60048036038101906105d6919061346b565b61136c565b005b3480156105e957600080fd5b5061060460048036038101906105ff91906135e0565b611382565b005b61060e611532565b005b34801561061c57600080fd5b5061063760048036038101906106329190613110565b611700565b6040516106479493929190613629565b60405180910390f35b34801561065c57600080fd5b506106776004803603810190610672919061370f565b61176d565b005b34801561068557600080fd5b506106a0600480360381019061069b9190613110565b6117cf565b6040516106ad91906131d6565b60405180910390f35b6106d060048036038101906106cb9190613110565b611876565b005b3480156106de57600080fd5b506106f960048036038101906106f49190613792565b611c54565b60405161070691906130bf565b60405180910390f35b34801561071b57600080fd5b506107366004803603810190610731919061333d565b611ce8565b60405161074391906132cf565b60405180910390f35b34801561075857600080fd5b50610773600480360381019061076e9190613110565b611d00565b60405161078091906130bf565b60405180910390f35b600061079482611d20565b9050919050565b80601281815481106107b0576107af6137d2565b5b906000526020600020906003020160000160149054906101000a900460ff1661080e576040517f08c379a00000000000000000000000000000000000000000000000000000000081526004016108059061384d565b60405180910390fd5b3373ffffffffffffffffffffffffffffffffffffffff1660128381548110610839576108386137d2565b5b906000526020600020906003020160000160009054906101000a900473ffffffffffffffffffffffffffffffffffffffff1673ffffffffffffffffffffffffffffffffffffffff16146108c1576040517f08c379a00000000000000000000000000000000000000000000000000000000081526004016108b8906138b9565b60405180910390fd5b6000601283815481106108d7576108d66137d2565b5b906000526020600020906003020160000160146101000a81548160ff0219169083151502179055506000600e600060128581548110610919576109186137d2565b5b906000526020600020906003020160010154815260200190815260200160002060006101000a81548160ff0219169083151502179055507f94bb74a9473ae4063ec1e73dc3e35fd4b5abe9cc1e43ad0db84e5358559ccd5a8260405161097f91906132cf565b60405180910390a15050565b60606000805461099a90613908565b80601f01602080910402602001604051908101604052809291908181526020018280546109c690613908565b8015610a135780601f106109e857610100808354040283529160200191610a13565b820191906000526020600020905b8154815290600101906020018083116109f657829003601f168201915b5050505050905090565b6000610a2882611d9a565b610a67576040517f08c379a0000000000000000000000000000000000000000000000000000000008152600401610a5e906139ab565b60405180910390fd5b6004600083815260200190815260200160002060009054906101000a900473ffffffffffffffffffffffffffffffffffffffff169050919050565b6000610aad82610e35565b90508073ffffffffffffffffffffffffffffffffffffffff168373ffffffffffffffffffffffffffffffffffffffff1603610b1d576040517f08c379a0000000000000000000000000000000000000000000000000000000008152600401610b1490613a3d565b60405180910390fd5b8073ffffffffffffffffffffffffffffffffffffffff16610b3c611e06565b73ffffffffffffffffffffffffffffffffffffffff161480610b6b5750610b6a81610b65611e06565b611c54565b5b610baa576040517f08c379a0000000000000000000000000000000000000000000000000000000008152600401610ba190613acf565b60405180910390fd5b610bb48383611e0e565b505050565b6000600880549050905090565b610bd7610bd1611e06565b82611ec7565b610c16576040517f08c379a0000000000000000000000000000000000000000000000000000000008152600401610c0d90613b61565b60405180910390fd5b610c21838383611fa5565b505050565b6000610c3183610ee6565b8210610c72576040517f08c379a0000000000000000000000000000000000000000000000000000000008152600401610c6990613bf3565b60405180910390fd5b600660008473ffffffffffffffffffffffffffffffffffffffff1673ffffffffffffffffffffffffffffffffffffffff168152602001908152602001600020600083815260200190815260200160002054905092915050565b600b5481565b6000600f60003373ffffffffffffffffffffffffffffffffffffffff1673ffffffffffffffffffffffffffffffffffffffff1681526020019081526020016000205490506000600f60003373ffffffffffffffffffffffffffffffffffffffff1673ffffffffffffffffffffffffffffffffffffffff168152602001908152602001600020819055503373ffffffffffffffffffffffffffffffffffffffff166108fc829081150290604051600060405180830381858888f19350505050158015610da0573d6000803e3d6000fd5b5050565b610dbf8383836040518060200160405280600081525061176d565b505050565b6000610dce610bb9565b8210610e0f576040517f08c379a0000000000000000000000000000000000000000000000000000000008152600401610e0690613c85565b60405180910390fd5b60088281548110610e2357610e226137d2565b5b90600052602060002001549050919050565b6000806002600084815260200190815260200160002060009054906101000a900473ffffffffffffffffffffffffffffffffffffffff169050600073ffffffffffffffffffffffffffffffffffffffff168173ffffffffffffffffffffffffffffffffffffffff1603610edd576040517f08c379a0000000000000000000000000000000000000000000000000000000008152600401610ed490613d17565b60405180910390fd5b80915050919050565b60008073ffffffffffffffffffffffffffffffffffffffff168273ffffffffffffffffffffffffffffffffffffffff1603610f56576040517f08c379a0000000000000000000000000000000000000000000000000000000008152600401610f4d90613da9565b60405180910390fd5b600360008373ffffffffffffffffffffffffffffffffffffffff1673ffffffffffffffffffffffffffffffffffffffff168152602001908152602001600020549050919050565b813373ffffffffffffffffffffffffffffffffffffffff16610fbe82610e35565b73ffffffffffffffffffffffffffffffffffffffff1614611014576040517f08c379a000000000000000000000000000000000000000000000000000000000815260040161100b90613e15565b60405180910390fd5b600060405180608001604052803373ffffffffffffffffffffffffffffffffffffffff1681526020016001151581526020018581526020018481525090506001600e600086815260200190815260200160002060006101000a81548160ff021916908315150217905550601280549050600d600086815260200190815260200160002081905550601281908060018154018082558091505060019003906000526020600020906003020160009091909190915060008201518160000160006101000a81548173ffffffffffffffffffffffffffffffffffffffff021916908373ffffffffffffffffffffffffffffffffffffffff16021790555060208201518160000160146101000a81548160ff021916908315150217905550604082015181600101556060820151816002015550507f0e25269d6b92e3d377b7da2a732e65193fb627672a6f7b2e6473def307c624ef3385604051611175929190613e35565b60405180910390a150505050565b6011818154811061119357600080fd5b90600052602060002090600202016000915090508060000180546111b690613908565b80601f01602080910402602001604051908101604052809291908181526020018280546111e290613908565b801561122f5780601f106112045761010080835404028352916020019161122f565b820191906000526020600020905b81548152906001019060200180831161121257829003601f168201915b5050505050908060010154905082565b6010818154811061124f57600080fd5b906000526020600020016000915090508060000160009054906101000a900473ffffffffffffffffffffffffffffffffffffffff16908060000160149054906101000a900460ff16905082565b600c60009054906101000a900473ffffffffffffffffffffffffffffffffffffffff1681565b600d6020528060005260406000206000915090505481565b6060600180546112e990613908565b80601f016020809104026020016040519081016040528092919081815260200182805461131590613908565b80156113625780601f1061133757610100808354040283529160200191611362565b820191906000526020600020905b81548152906001019060200180831161134557829003601f168201915b5050505050905090565b61137e611377611e06565b838361220b565b5050565b600c60009054906101000a900473ffffffffffffffffffffffffffffffffffffffff1673ffffffffffffffffffffffffffffffffffffffff163373ffffffffffffffffffffffffffffffffffffffff1614611412576040517f08c379a000000000000000000000000000000000000000000000000000000000815260040161140990613ed0565b60405180910390fd5b6064600b5410611457576040517f08c379a000000000000000000000000000000000000000000000000000000000815260040161144e90613f62565b60405180910390fd5b6114a66010600b54815481106114705761146f6137d2565b5b9060005260206000200160000160009054906101000a900473ffffffffffffffffffffffffffffffffffffffff16600b54612377565b6000604051806040016040528083815260200142815250905060118190806001815401808255809150506001900390600052602060002090600202016000909190919091506000820151816000019080519060200190611507929190612f68565b506020820151816001015550506001600b60008282546115279190613fb1565b925050819055505050565b6064600b5410611577576040517f08c379a000000000000000000000000000000000000000000000000000000000815260040161156e90613f62565b60405180910390fd5b670de0b6b3a7640000341461158b57600080fd5b34600f6000600c60009054906101000a900473ffffffffffffffffffffffffffffffffffffffff1673ffffffffffffffffffffffffffffffffffffffff1673ffffffffffffffffffffffffffffffffffffffff16815260200190815260200160002060008282546115fc9190613fb1565b92505081905550600060405180604001604052803373ffffffffffffffffffffffffffffffffffffffff1681526020016001151581525090506010819080600181540180825580915050600190039060005260206000200160009091909190915060008201518160000160006101000a81548173ffffffffffffffffffffffffffffffffffffffff021916908373ffffffffffffffffffffffffffffffffffffffff16021790555060208201518160000160146101000a81548160ff02191690831515021790555050507f601a6dc87ae6f751d4737768419fcdc1ab318f4cca7722f90c43aa6c175cd616336040516116f59190613239565b60405180910390a150565b6012818154811061171057600080fd5b90600052602060002090600302016000915090508060000160009054906101000a900473ffffffffffffffffffffffffffffffffffffffff16908060000160149054906101000a900460ff16908060010154908060020154905084565b61177e611778611e06565b83611ec7565b6117bd576040517f08c379a00000000000000000000000000000000000000000000000000000000081526004016117b490613b61565b60405180910390fd5b6117c984848484612395565b50505050565b60606117da82611d9a565b611819576040517f08c379a000000000000000000000000000000000000000000000000000000000815260040161181090614079565b60405180910390fd5b60006118236123f1565b90506000815111611843576040518060200160405280600081525061186e565b8061184d84612408565b60405160200161185e9291906140d5565b6040516020818303038152906040525b915050919050565b806012818154811061188b5761188a6137d2565b5b906000526020600020906003020160000160149054906101000a900460ff166118e9576040517f08c379a00000000000000000000000000000000000000000000000000000000081526004016118e09061384d565b60405180910390fd5b61191760128381548110611900576118ff6137d2565b5b906000526020600020906003020160010154610e35565b73ffffffffffffffffffffffffffffffffffffffff1660128381548110611941576119406137d2565b5b906000526020600020906003020160000160009054906101000a900473ffffffffffffffffffffffffffffffffffffffff1673ffffffffffffffffffffffffffffffffffffffff16146119c9576040517f08c379a00000000000000000000000000000000000000000000000000000000081526004016119c09061416b565b60405180910390fd5b34601283815481106119de576119dd6137d2565b5b9060005260206000209060030201600201541115611a31576040517f08c379a0000000000000000000000000000000000000000000000000000000008152600401611a28906141d7565b60405180910390fd5b34600f600060128581548110611a4a57611a496137d2565b5b906000526020600020906003020160000160009054906101000a900473ffffffffffffffffffffffffffffffffffffffff1673ffffffffffffffffffffffffffffffffffffffff1673ffffffffffffffffffffffffffffffffffffffff1681526020019081526020016000206000828254611ac59190613fb1565b925050819055506000600e600060128581548110611ae657611ae56137d2565b5b906000526020600020906003020160010154815260200190815260200160002060006101000a81548160ff021916908315150217905550600060128381548110611b3357611b326137d2565b5b906000526020600020906003020160000160146101000a81548160ff021916908315150217905550611bd060128381548110611b7257611b716137d2565b5b906000526020600020906003020160000160009054906101000a900473ffffffffffffffffffffffffffffffffffffffff163360128581548110611bb957611bb86137d2565b5b906000526020600020906003020160010154611fa5565b7f5769dede23e7f2380cbd4120a3250a285ec4f44b86e5fbd3666ffed56f3c89483360128481548110611c0657611c056137d2565b5b906000526020600020906003020160000160009054906101000a900473ffffffffffffffffffffffffffffffffffffffff1684604051611c48939291906141f7565b60405180910390a15050565b6000600560008473ffffffffffffffffffffffffffffffffffffffff1673ffffffffffffffffffffffffffffffffffffffff16815260200190815260200160002060008373ffffffffffffffffffffffffffffffffffffffff1673ffffffffffffffffffffffffffffffffffffffff16815260200190815260200160002060009054906101000a900460ff16905092915050565b600f6020528060005260406000206000915090505481565b600e6020528060005260406000206000915054906101000a900460ff1681565b60007f780e9d63000000000000000000000000000000000000000000000000000000007bffffffffffffffffffffffffffffffffffffffffffffffffffffffff1916827bffffffffffffffffffffffffffffffffffffffffffffffffffffffff19161480611d935750611d9282612568565b5b9050919050565b60008073ffffffffffffffffffffffffffffffffffffffff166002600084815260200190815260200160002060009054906101000a900473ffffffffffffffffffffffffffffffffffffffff1673ffffffffffffffffffffffffffffffffffffffff1614159050919050565b600033905090565b816004600083815260200190815260200160002060006101000a81548173ffffffffffffffffffffffffffffffffffffffff021916908373ffffffffffffffffffffffffffffffffffffffff160217905550808273ffffffffffffffffffffffffffffffffffffffff16611e8183610e35565b73ffffffffffffffffffffffffffffffffffffffff167f8c5be1e5ebec7d5bd14f71427d1e84f3dd0314c0f7b2291e5b200ac8c7c3b92560405160405180910390a45050565b6000611ed282611d9a565b611f11576040517f08c379a0000000000000000000000000000000000000000000000000000000008152600401611f08906142a0565b60405180910390fd5b6000611f1c83610e35565b90508073ffffffffffffffffffffffffffffffffffffffff168473ffffffffffffffffffffffffffffffffffffffff161480611f8b57508373ffffffffffffffffffffffffffffffffffffffff16611f7384610a1d565b73ffffffffffffffffffffffffffffffffffffffff16145b80611f9c5750611f9b8185611c54565b5b91505092915050565b8273ffffffffffffffffffffffffffffffffffffffff16611fc582610e35565b73ffffffffffffffffffffffffffffffffffffffff161461201b576040517f08c379a000000000000000000000000000000000000000000000000000000000815260040161201290614332565b60405180910390fd5b600073ffffffffffffffffffffffffffffffffffffffff168273ffffffffffffffffffffffffffffffffffffffff160361208a576040517f08c379a0000000000000000000000000000000000000000000000000000000008152600401612081906143c4565b60405180910390fd5b61209583838361264a565b6120a0600082611e0e565b6001600360008573ffffffffffffffffffffffffffffffffffffffff1673ffffffffffffffffffffffffffffffffffffffff16815260200190815260200160002060008282546120f091906143e4565b925050819055506001600360008473ffffffffffffffffffffffffffffffffffffffff1673ffffffffffffffffffffffffffffffffffffffff16815260200190815260200160002060008282546121479190613fb1565b92505081905550816002600083815260200190815260200160002060006101000a81548173ffffffffffffffffffffffffffffffffffffffff021916908373ffffffffffffffffffffffffffffffffffffffff160217905550808273ffffffffffffffffffffffffffffffffffffffff168473ffffffffffffffffffffffffffffffffffffffff167fddf252ad1be2c89b69c2b068fc378daa952ba7f163c4a11628f55a4df523b3ef60405160405180910390a46122068383836126fe565b505050565b8173ffffffffffffffffffffffffffffffffffffffff168373ffffffffffffffffffffffffffffffffffffffff1603612279576040517f08c379a000000000000000000000000000000000000000000000000000000000815260040161227090614464565b60405180910390fd5b80600560008573ffffffffffffffffffffffffffffffffffffffff1673ffffffffffffffffffffffffffffffffffffffff16815260200190815260200160002060008473ffffffffffffffffffffffffffffffffffffffff1673ffffffffffffffffffffffffffffffffffffffff16815260200190815260200160002060006101000a81548160ff0219169083151502179055508173ffffffffffffffffffffffffffffffffffffffff168373ffffffffffffffffffffffffffffffffffffffff167f17307eab39ab6107e8899845ad3d59bd9653f200f220920489ca2b5937696c318360405161236a91906130bf565b60405180910390a3505050565b612391828260405180602001604052806000815250612703565b5050565b6123a0848484611fa5565b6123ac8484848461275e565b6123eb576040517f08c379a00000000000000000000000000000000000000000000000000000000081526004016123e2906144f6565b60405180910390fd5b50505050565b606060405180602001604052806000815250905090565b60606000820361244f576040518060400160405280600181526020017f30000000000000000000000000000000000000000000000000000000000000008152509050612563565b600082905060005b6000821461248157808061246a90614516565b915050600a8261247a919061458d565b9150612457565b60008167ffffffffffffffff81111561249d5761249c6134b5565b5b6040519080825280601f01601f1916602001820160405280156124cf5781602001600182028036833780820191505090505b5090505b6000851461255c576001826124e891906143e4565b9150600a856124f791906145be565b60306125039190613fb1565b60f81b818381518110612519576125186137d2565b5b60200101907effffffffffffffffffffffffffffffffffffffffffffffffffffffffffffff1916908160001a905350600a85612555919061458d565b94506124d3565b8093505050505b919050565b60007f80ac58cd000000000000000000000000000000000000000000000000000000007bffffffffffffffffffffffffffffffffffffffffffffffffffffffff1916827bffffffffffffffffffffffffffffffffffffffffffffffffffffffff1916148061263357507f5b5e139f000000000000000000000000000000000000000000000000000000007bffffffffffffffffffffffffffffffffffffffffffffffffffffffff1916827bffffffffffffffffffffffffffffffffffffffffffffffffffffffff1916145b806126435750612642826128e5565b5b9050919050565b600e600082815260200190815260200160002060009054906101000a900460ff16156126ee576000600e600083815260200190815260200160002060006101000a81548160ff02191690831515021790555060006012600d600084815260200190815260200160002054815481106126c5576126c46137d2565b5b906000526020600020906003020160000160146101000a81548160ff0219169083151502179055505b6126f983838361294f565b505050565b505050565b61270d8383612a61565b61271a600084848461275e565b612759576040517f08c379a0000000000000000000000000000000000000000000000000000000008152600401612750906144f6565b60405180910390fd5b505050565b600061277f8473ffffffffffffffffffffffffffffffffffffffff16612c3a565b156128d8578373ffffffffffffffffffffffffffffffffffffffff1663150b7a026127a8611e06565b8786866040518563ffffffff1660e01b81526004016127ca9493929190614644565b6020604051808303816000875af192505050801561280657506040513d601f19601f8201168201806040525081019061280391906146a5565b60015b612888573d8060008114612836576040519150601f19603f3d011682016040523d82523d6000602084013e61283b565b606091505b506000815103612880576040517f08c379a0000000000000000000000000000000000000000000000000000000008152600401612877906144f6565b60405180910390fd5b805181602001fd5b63150b7a0260e01b7bffffffffffffffffffffffffffffffffffffffffffffffffffffffff1916817bffffffffffffffffffffffffffffffffffffffffffffffffffffffff1916149150506128dd565b600190505b949350505050565b60007f01ffc9a7000000000000000000000000000000000000000000000000000000007bffffffffffffffffffffffffffffffffffffffffffffffffffffffff1916827bffffffffffffffffffffffffffffffffffffffffffffffffffffffff1916149050919050565b61295a838383612c5d565b600073ffffffffffffffffffffffffffffffffffffffff168373ffffffffffffffffffffffffffffffffffffffff160361299c5761299781612c62565b6129db565b8173ffffffffffffffffffffffffffffffffffffffff168373ffffffffffffffffffffffffffffffffffffffff16146129da576129d98382612cab565b5b5b600073ffffffffffffffffffffffffffffffffffffffff168273ffffffffffffffffffffffffffffffffffffffff1603612a1d57612a1881612e18565b612a5c565b8273ffffffffffffffffffffffffffffffffffffffff168273ffffffffffffffffffffffffffffffffffffffff1614612a5b57612a5a8282612ee9565b5b5b505050565b600073ffffffffffffffffffffffffffffffffffffffff168273ffffffffffffffffffffffffffffffffffffffff1603612ad0576040517f08c379a0000000000000000000000000000000000000000000000000000000008152600401612ac79061471e565b60405180910390fd5b612ad981611d9a565b15612b19576040517f08c379a0000000000000000000000000000000000000000000000000000000008152600401612b109061478a565b60405180910390fd5b612b256000838361264a565b6001600360008473ffffffffffffffffffffffffffffffffffffffff1673ffffffffffffffffffffffffffffffffffffffff1681526020019081526020016000206000828254612b759190613fb1565b92505081905550816002600083815260200190815260200160002060006101000a81548173ffffffffffffffffffffffffffffffffffffffff021916908373ffffffffffffffffffffffffffffffffffffffff160217905550808273ffffffffffffffffffffffffffffffffffffffff16600073ffffffffffffffffffffffffffffffffffffffff167fddf252ad1be2c89b69c2b068fc378daa952ba7f163c4a11628f55a4df523b3ef60405160405180910390a4612c36600083836126fe565b5050565b6000808273ffffffffffffffffffffffffffffffffffffffff163b119050919050565b505050565b6008805490506009600083815260200190815260200160002081905550600881908060018154018082558091505060019003906000526020600020016000909190919091505550565b60006001612cb884610ee6565b612cc291906143e4565b9050600060076000848152602001908152602001600020549050818114612da7576000600660008673ffffffffffffffffffffffffffffffffffffffff1673ffffffffffffffffffffffffffffffffffffffff168152602001908152602001600020600084815260200190815260200160002054905080600660008773ffffffffffffffffffffffffffffffffffffffff1673ffffffffffffffffffffffffffffffffffffffff168152602001908152602001600020600084815260200190815260200160002081905550816007600083815260200190815260200160002081905550505b6007600084815260200190815260200160002060009055600660008573ffffffffffffffffffffffffffffffffffffffff1673ffffffffffffffffffffffffffffffffffffffff16815260200190815260200160002060008381526020019081526020016000206000905550505050565b60006001600880549050612e2c91906143e4565b9050600060096000848152602001908152602001600020549050600060088381548110612e5c57612e5b6137d2565b5b906000526020600020015490508060088381548110612e7e57612e7d6137d2565b5b906000526020600020018190555081600960008381526020019081526020016000208190555060096000858152602001908152602001600020600090556008805480612ecd57612ecc6147aa565b5b6001900381819060005260206000200160009055905550505050565b6000612ef483610ee6565b905081600660008573ffffffffffffffffffffffffffffffffffffffff1673ffffffffffffffffffffffffffffffffffffffff168152602001908152602001600020600083815260200190815260200160002081905550806007600084815260200190815260200160002081905550505050565b828054612f7490613908565b90600052602060002090601f016020900481019282612f965760008555612fdd565b82601f10612faf57805160ff1916838001178555612fdd565b82800160010185558215612fdd579182015b82811115612fdc578251825591602001919060010190612fc1565b5b509050612fea9190612fee565b5090565b5b80821115613007576000816000905550600101612fef565b5090565b6000604051905090565b600080fd5b600080fd5b60007fffffffff0000000000000000000000000000000000000000000000000000000082169050919050565b6130548161301f565b811461305f57600080fd5b50565b6000813590506130718161304b565b92915050565b60006020828403121561308d5761308c613015565b5b600061309b84828501613062565b91505092915050565b60008115159050919050565b6130b9816130a4565b82525050565b60006020820190506130d460008301846130b0565b92915050565b6000819050919050565b6130ed816130da565b81146130f857600080fd5b50565b60008135905061310a816130e4565b92915050565b60006020828403121561312657613125613015565b5b6000613134848285016130fb565b91505092915050565b600081519050919050565b600082825260208201905092915050565b60005b8381101561317757808201518184015260208101905061315c565b83811115613186576000848401525b50505050565b6000601f19601f8301169050919050565b60006131a88261313d565b6131b28185613148565b93506131c2818560208601613159565b6131cb8161318c565b840191505092915050565b600060208201905081810360008301526131f0818461319d565b905092915050565b600073ffffffffffffffffffffffffffffffffffffffff82169050919050565b6000613223826131f8565b9050919050565b61323381613218565b82525050565b600060208201905061324e600083018461322a565b92915050565b61325d81613218565b811461326857600080fd5b50565b60008135905061327a81613254565b92915050565b6000806040838503121561329757613296613015565b5b60006132a58582860161326b565b92505060206132b6858286016130fb565b9150509250929050565b6132c9816130da565b82525050565b60006020820190506132e460008301846132c0565b92915050565b60008060006060848603121561330357613302613015565b5b60006133118682870161326b565b93505060206133228682870161326b565b9250506040613333868287016130fb565b9150509250925092565b60006020828403121561335357613352613015565b5b60006133618482850161326b565b91505092915050565b6000806040838503121561338157613380613015565b5b600061338f858286016130fb565b92505060206133a0858286016130fb565b9150509250929050565b600060408201905081810360008301526133c4818561319d565b90506133d360208301846132c0565b9392505050565b60006040820190506133ef600083018561322a565b6133fc60208301846130b0565b9392505050565b600061340e826131f8565b9050919050565b61341e81613403565b82525050565b60006020820190506134396000830184613415565b92915050565b613448816130a4565b811461345357600080fd5b50565b6000813590506134658161343f565b92915050565b6000806040838503121561348257613481613015565b5b60006134908582860161326b565b92505060206134a185828601613456565b9150509250929050565b600080fd5b600080fd5b7f4e487b7100000000000000000000000000000000000000000000000000000000600052604160045260246000fd5b6134ed8261318c565b810181811067ffffffffffffffff8211171561350c5761350b6134b5565b5b80604052505050565b600061351f61300b565b905061352b82826134e4565b919050565b600067ffffffffffffffff82111561354b5761354a6134b5565b5b6135548261318c565b9050602081019050919050565b82818337600083830152505050565b600061358361357e84613530565b613515565b90508281526020810184848401111561359f5761359e6134b0565b5b6135aa848285613561565b509392505050565b600082601f8301126135c7576135c66134ab565b5b81356135d7848260208601613570565b91505092915050565b6000602082840312156135f6576135f5613015565b5b600082013567ffffffffffffffff8111156136145761361361301a565b5b613620848285016135b2565b91505092915050565b600060808201905061363e600083018761322a565b61364b60208301866130b0565b61365860408301856132c0565b61366560608301846132c0565b95945050505050565b600067ffffffffffffffff821115613689576136886134b5565b5b6136928261318c565b9050602081019050919050565b60006136b26136ad8461366e565b613515565b9050828152602081018484840111156136ce576136cd6134b0565b5b6136d9848285613561565b509392505050565b600082601f8301126136f6576136f56134ab565b5b813561370684826020860161369f565b91505092915050565b6000806000806080858703121561372957613728613015565b5b60006137378782880161326b565b94505060206137488782880161326b565b9350506040613759878288016130fb565b925050606085013567ffffffffffffffff81111561377a5761377961301a565b5b613786878288016136e1565b91505092959194509250565b600080604083850312156137a9576137a8613015565b5b60006137b78582860161326b565b92505060206137c88582860161326b565b9150509250929050565b7f4e487b7100000000000000000000000000000000000000000000000000000000600052603260045260246000fd5b7f53616c65206973206e6f74206163746976650000000000000000000000000000600082015250565b6000613837601283613148565b915061384282613801565b602082019050919050565b600060208201905081810360008301526138668161382a565b9050919050565b7f796f7520617265206e6f74206f776e6572206f6620746869732073616c650000600082015250565b60006138a3601e83613148565b91506138ae8261386d565b602082019050919050565b600060208201905081810360008301526138d281613896565b9050919050565b7f4e487b7100000000000000000000000000000000000000000000000000000000600052602260045260246000fd5b6000600282049050600182168061392057607f821691505b602082108103613933576139326138d9565b5b50919050565b7f4552433732313a20617070726f76656420717565727920666f72206e6f6e657860008201527f697374656e7420746f6b656e0000000000000000000000000000000000000000602082015250565b6000613995602c83613148565b91506139a082613939565b604082019050919050565b600060208201905081810360008301526139c481613988565b9050919050565b7f4552433732313a20617070726f76616c20746f2063757272656e74206f776e6560008201527f7200000000000000000000000000000000000000000000000000000000000000602082015250565b6000613a27602183613148565b9150613a32826139cb565b604082019050919050565b60006020820190508181036000830152613a5681613a1a565b9050919050565b7f4552433732313a20617070726f76652063616c6c6572206973206e6f74206f7760008201527f6e6572206e6f7220617070726f76656420666f7220616c6c0000000000000000602082015250565b6000613ab9603883613148565b9150613ac482613a5d565b604082019050919050565b60006020820190508181036000830152613ae881613aac565b9050919050565b7f4552433732313a207472616e736665722063616c6c6572206973206e6f74206f60008201527f776e6572206e6f7220617070726f766564000000000000000000000000000000602082015250565b6000613b4b603183613148565b9150613b5682613aef565b604082019050919050565b60006020820190508181036000830152613b7a81613b3e565b9050919050565b7f455243373231456e756d657261626c653a206f776e657220696e646578206f7560008201527f74206f6620626f756e6473000000000000000000000000000000000000000000602082015250565b6000613bdd602b83613148565b9150613be882613b81565b604082019050919050565b60006020820190508181036000830152613c0c81613bd0565b9050919050565b7f455243373231456e756d657261626c653a20676c6f62616c20696e646578206f60008201527f7574206f6620626f756e64730000000000000000000000000000000000000000602082015250565b6000613c6f602c83613148565b9150613c7a82613c13565b604082019050919050565b60006020820190508181036000830152613c9e81613c62565b9050919050565b7f4552433732313a206f776e657220717565727920666f72206e6f6e657869737460008201527f656e7420746f6b656e0000000000000000000000000000000000000000000000602082015250565b6000613d01602983613148565b9150613d0c82613ca5565b604082019050919050565b60006020820190508181036000830152613d3081613cf4565b9050919050565b7f4552433732313a2062616c616e636520717565727920666f7220746865207a6560008201527f726f206164647265737300000000000000000000000000000000000000000000602082015250565b6000613d93602a83613148565b9150613d9e82613d37565b604082019050919050565b60006020820190508181036000830152613dc281613d86565b9050919050565b7f596f7520617265206e6f74206f776e6572206f66207468697320747265650000600082015250565b6000613dff601e83613148565b9150613e0a82613dc9565b602082019050919050565b60006020820190508181036000830152613e2e81613df2565b9050919050565b6000604082019050613e4a600083018561322a565b613e5760208301846132c0565b9392505050565b7f4f6e6c79206f776e6572206f662074686520736d61727420636f6e747261637460008201527f2063616e2063616c6c20746869732066756e6374696f6e203b28282828280000602082015250565b6000613eba603e83613148565b9150613ec582613e5e565b604082019050919050565b60006020820190508181036000830152613ee981613ead565b9050919050565b7f5a6d696e746f77616e6f206a757a2077737a7973746b6965204e465420647a6960008201527f656b756a656d79203a3333330000000000000000000000000000000000000000602082015250565b6000613f4c602c83613148565b9150613f5782613ef0565b604082019050919050565b60006020820190508181036000830152613f7b81613f3f565b9050919050565b7f4e487b7100000000000000000000000000000000000000000000000000000000600052601160045260246000fd5b6000613fbc826130da565b9150613fc7836130da565b9250827fffffffffffffffffffffffffffffffffffffffffffffffffffffffffffffffff03821115613ffc57613ffb613f82565b5b828201905092915050565b7f4552433732314d657461646174613a2055524920717565727920666f72206e6f60008201527f6e6578697374656e7420746f6b656e0000000000000000000000000000000000602082015250565b6000614063602f83613148565b915061406e82614007565b604082019050919050565b6000602082019050818103600083015261409281614056565b9050919050565b600081905092915050565b60006140af8261313d565b6140b98185614099565b93506140c9818560208601613159565b80840191505092915050565b60006140e182856140a4565b91506140ed82846140a4565b91508190509392505050565b7f506572736f6e2077686f2070757420746861742074726565206f6e2073616c6560008201527f206973206e6f7420746869732074726565206f776e657220616e796d6f726500602082015250565b6000614155603f83613148565b9150614160826140f9565b604082019050919050565b6000602082019050818103600083015261418481614148565b9050919050565b7f6e6f7420656e6f7567682066756e647300000000000000000000000000000000600082015250565b60006141c1601083613148565b91506141cc8261418b565b602082019050919050565b600060208201905081810360008301526141f0816141b4565b9050919050565b600060608201905061420c600083018661322a565b614219602083018561322a565b61422660408301846132c0565b949350505050565b7f4552433732313a206f70657261746f7220717565727920666f72206e6f6e657860008201527f697374656e7420746f6b656e0000000000000000000000000000000000000000602082015250565b600061428a602c83613148565b91506142958261422e565b604082019050919050565b600060208201905081810360008301526142b98161427d565b9050919050565b7f4552433732313a207472616e736665722066726f6d20696e636f72726563742060008201527f6f776e6572000000000000000000000000000000000000000000000000000000602082015250565b600061431c602583613148565b9150614327826142c0565b604082019050919050565b6000602082019050818103600083015261434b8161430f565b9050919050565b7f4552433732313a207472616e7366657220746f20746865207a65726f2061646460008201527f7265737300000000000000000000000000000000000000000000000000000000602082015250565b60006143ae602483613148565b91506143b982614352565b604082019050919050565b600060208201905081810360008301526143dd816143a1565b9050919050565b60006143ef826130da565b91506143fa836130da565b92508282101561440d5761440c613f82565b5b828203905092915050565b7f4552433732313a20617070726f766520746f2063616c6c657200000000000000600082015250565b600061444e601983613148565b915061445982614418565b602082019050919050565b6000602082019050818103600083015261447d81614441565b9050919050565b7f4552433732313a207472616e7366657220746f206e6f6e20455243373231526560008201527f63656976657220696d706c656d656e7465720000000000000000000000000000602082015250565b60006144e0603283613148565b91506144eb82614484565b604082019050919050565b6000602082019050818103600083015261450f816144d3565b9050919050565b6000614521826130da565b91507fffffffffffffffffffffffffffffffffffffffffffffffffffffffffffffffff820361455357614552613f82565b5b600182019050919050565b7f4e487b7100000000000000000000000000000000000000000000000000000000600052601260045260246000fd5b6000614598826130da565b91506145a3836130da565b9250826145b3576145b261455e565b5b828204905092915050565b60006145c9826130da565b91506145d4836130da565b9250826145e4576145e361455e565b5b828206905092915050565b600081519050919050565b600082825260208201905092915050565b6000614616826145ef565b61462081856145fa565b9350614630818560208601613159565b6146398161318c565b840191505092915050565b6000608082019050614659600083018761322a565b614666602083018661322a565b61467360408301856132c0565b8181036060830152614685818461460b565b905095945050505050565b60008151905061469f8161304b565b92915050565b6000602082840312156146bb576146ba613015565b5b60006146c984828501614690565b91505092915050565b7f4552433732313a206d696e7420746f20746865207a65726f2061646472657373600082015250565b6000614708602083613148565b9150614713826146d2565b602082019050919050565b60006020820190508181036000830152614737816146fb565b9050919050565b7f4552433732313a20746f6b656e20616c7265616479206d696e74656400000000600082015250565b6000614774601c83613148565b915061477f8261473e565b602082019050919050565b600060208201905081810360008301526147a381614767565b9050919050565b7f4e487b7100000000000000000000000000000000000000000000000000000000600052603160045260246000fdfea26469706673582212204207d1ab1332193a834e02a465da522ce2a3f3a032c66345eba194e8774b758f64736f6c634300080d0033",
  "immutableReferences": {},
  "source": "pragma solidity ^0.8.0;\r\n\r\nimport \"@openzeppelin/contracts/token/ERC721/extensions/ERC721Enumerable.sol\";\r\n\r\ncontract HelloWorld is ERC721,ERC721Enumerable{\r\n\r\n    event TreeRequested(address requesting);\r\n\r\n    event TreePutOnSale(address saler,uint TreeId);\r\n\r\n    event BoughtTreeOnSale(address buyer, address seller,uint saleId);\r\n\r\n    event SaleEnded(uint saleId);\r\n\r\n    bytes32 PROVANANCE_HASH = 0x0;\r\n\r\n    //id of the new token\r\n    uint public newTokenId;\r\n\r\n    address payable public  owner;\r\n\r\n    mapping(uint => uint) public tokenIdToSaleId;\r\n    mapping(uint => bool) public isOnSale;\r\n\r\n    modifier onlyOwner() {\r\n        require(msg.sender == owner, \"Only owner of the smart contract can call this function ;(((((\");\r\n        _;\r\n    }\r\n\r\n    modifier isTreeOwner(uint _treeId){\r\n        require(ownerOf(_treeId) == msg.sender, \"You are not owner of this tree\");\r\n        _;\r\n    }\r\n\r\n    modifier isSaleActive(uint _saleId){\r\n        require(sales[_saleId].active, \"Sale is not active\");\r\n        _;\r\n    }\r\n\r\n    modifier isUnderMax(){\r\n        require(newTokenId<100,\"Zmintowano juz wszystkie NFT dziekujemy :333\");\r\n        _;\r\n    }\r\n\r\n    struct Tree{\r\n        string genes;\r\n        uint256 birthdate;\r\n    }\r\n\r\n    struct Sale {\r\n        address owner;\r\n        bool active;\r\n        uint TreeId;\r\n        uint valueWei;\r\n    }\r\n\r\n    struct Request{\r\n        address requesting;\r\n        bool active;\r\n    }\r\n\r\n    mapping(address=>uint) public ownerToFunds;\r\n\r\n    Request[] public requests;\r\n\r\n    Tree[] public trees;\r\n\r\n    Sale[] public sales;\r\n\r\n    //Funkcja ktora pozwala adresowi ktory wywoluje ta funkcje przelac do siebie nalezne mu ETH\r\n    function withdraw() external{\r\n        uint toPay = ownerToFunds[msg.sender];\r\n        ownerToFunds[msg.sender] = 0;\r\n        payable(msg.sender).transfer(toPay);\r\n    }\r\n\r\n    //Osoba moze wystawic drzewko o danym Id po danej cenie jesli jest jego wlascicielem\r\n    function putTreeOnSale(uint _treeId, uint _valueWei) external isTreeOwner(_treeId){\r\n        Sale memory sale = Sale(msg.sender, true,_treeId,_valueWei);\r\n        isOnSale[_treeId] =true;\r\n        tokenIdToSaleId[_treeId] = sales.length;\r\n        sales.push(sale);\r\n        emit TreePutOnSale(msg.sender, _treeId);\r\n    }\r\n\r\n    //Mozesz kupic nft o danym Id po wystawionej cenie jesli jest na sprzedaz\r\n    function buyTree(uint _saleId) external payable isSaleActive(_saleId){\r\n        require(sales[_saleId].owner == ownerOf(sales[_saleId].TreeId), \"Person who put that tree on sale is not this tree owner anymore\");\r\n        require(sales[_saleId].valueWei <= msg.value, \"not enough funds\");\r\n        ownerToFunds[sales[_saleId].owner] += msg.value;\r\n        isOnSale[sales[_saleId].TreeId] = false;\r\n        sales[_saleId].active = false;\r\n        _transfer(sales[_saleId].owner,msg.sender , sales[_saleId].TreeId);\r\n        emit BoughtTreeOnSale(msg.sender, sales[_saleId].owner, _saleId);\r\n    }\r\n\r\n    //jesli jednak nie chcesz sprzedac swojego drzewka mozesz \"zdjac je z \"marketu\"\r\n    function endSale(uint _saleId) external isSaleActive(_saleId) {\r\n        require(sales[_saleId].owner == msg.sender, \"you are not owner of this sale\");\r\n        sales[_saleId].active = false;\r\n        isOnSale[sales[_saleId].TreeId] = false;\r\n        emit SaleEnded(_saleId);\r\n    }\r\n    //Uzytkownik prosi o utworzenie Nft dla niego i my je potem mintujemy\r\n    function requestTree() external payable isUnderMax(){\r\n        require(msg.value == 1 ether);\r\n        ownerToFunds[owner] += msg.value;\r\n        Request memory request = Request(msg.sender,true);\r\n        requests.push(request);\r\n        emit TreeRequested(msg.sender);\r\n    }\r\n\r\n    constructor() ERC721(\"Tree\", \"Tre\"){\r\n        owner = payable(msg.sender);\r\n        newTokenId = 0;\r\n    }\r\n    //owner smart contractu tworzy nft i wpisuje geny drzewka ktore ma byc dla uzytkownika ktory ostatni zrequestowal(nwm no pozniej lepiej napisze te komentarze)\r\n    function mintTree(string memory _genes) external onlyOwner() isUnderMax(){\r\n        _safeMint(requests[newTokenId].requesting, newTokenId);\r\n        Tree memory tree = Tree(_genes,block.timestamp);\r\n        trees.push(tree);\r\n        newTokenId += 1;\r\n    }\r\n\r\n    function _beforeTokenTransfer(address from, address to, uint256 tokenId)\r\n    internal\r\n    override(ERC721, ERC721Enumerable)\r\n    {\r\n        if(isOnSale[tokenId]){\r\n            isOnSale[tokenId] = false;\r\n            sales[tokenIdToSaleId[tokenId]].active = false;\r\n        }\r\n        super._beforeTokenTransfer(from, to, tokenId);\r\n    }\r\n\r\n    function supportsInterface(bytes4 interfaceId)\r\n    public\r\n    view\r\n    override(ERC721, ERC721Enumerable)\r\n    returns (bool)\r\n    {\r\n        return super.supportsInterface(interfaceId);\r\n    }\r\n\r\n\r\n}",
  "sourcePath": "D:\\projekty\\foresta_app\\contracts\\Foresta.sol",
  "compiler": {
    "name": "solc",
    "version": "0.8.13+commit.abaa5c0e.Emscripten.clang"
  },
  "schemaVersion": "3.4.7",
  "updatedAt": "2022-04-12T19:14:04.698Z",
  "networkType": "ethereum",
  "devdoc": {
    "kind": "dev",
    "methods": {
      "approve(address,uint256)": {
        "details": "See {IERC721-approve}."
      },
      "balanceOf(address)": {
        "details": "See {IERC721-balanceOf}."
      },
      "getApproved(uint256)": {
        "details": "See {IERC721-getApproved}."
      },
      "isApprovedForAll(address,address)": {
        "details": "See {IERC721-isApprovedForAll}."
      },
      "name()": {
        "details": "See {IERC721Metadata-name}."
      },
      "ownerOf(uint256)": {
        "details": "See {IERC721-ownerOf}."
      },
      "safeTransferFrom(address,address,uint256)": {
        "details": "See {IERC721-safeTransferFrom}."
      },
      "safeTransferFrom(address,address,uint256,bytes)": {
        "details": "See {IERC721-safeTransferFrom}."
      },
      "setApprovalForAll(address,bool)": {
        "details": "See {IERC721-setApprovalForAll}."
      },
      "symbol()": {
        "details": "See {IERC721Metadata-symbol}."
      },
      "tokenByIndex(uint256)": {
        "details": "See {IERC721Enumerable-tokenByIndex}."
      },
      "tokenOfOwnerByIndex(address,uint256)": {
        "details": "See {IERC721Enumerable-tokenOfOwnerByIndex}."
      },
      "tokenURI(uint256)": {
        "details": "See {IERC721Metadata-tokenURI}."
      },
      "totalSupply()": {
        "details": "See {IERC721Enumerable-totalSupply}."
      },
      "transferFrom(address,address,uint256)": {
        "details": "See {IERC721-transferFrom}."
      }
    },
    "version": 1
  },
  "userdoc": {
    "kind": "user",
    "methods": {},
    "version": 1
  }
}