{
  "contractName": "HelloWorld",
  "abi": [
    {
      "inputs": [],
      "stateMutability": "nonpayable",
      "type": "constructor"
    },
    {
      "anonymous": false,
      "inputs": [
        {
          "indexed": true,
          "internalType": "address",
          "name": "owner",
          "type": "address"
        },
        {
          "indexed": true,
          "internalType": "address",
          "name": "approved",
          "type": "address"
        },
        {
          "indexed": true,
          "internalType": "uint256",
          "name": "tokenId",
          "type": "uint256"
        }
      ],
      "name": "Approval",
      "type": "event"
    },
    {
      "anonymous": false,
      "inputs": [
        {
          "indexed": true,
          "internalType": "address",
          "name": "owner",
          "type": "address"
        },
        {
          "indexed": true,
          "internalType": "address",
          "name": "operator",
          "type": "address"
        },
        {
          "indexed": false,
          "internalType": "bool",
          "name": "approved",
          "type": "bool"
        }
      ],
      "name": "ApprovalForAll",
      "type": "event"
    },
    {
      "anonymous": false,
      "inputs": [
        {
          "indexed": false,
          "internalType": "address",
          "name": "buyer",
          "type": "address"
        },
        {
          "indexed": false,
          "internalType": "address",
          "name": "seller",
          "type": "address"
        },
        {
          "indexed": false,
          "internalType": "uint256",
          "name": "saleId",
          "type": "uint256"
        }
      ],
      "name": "BoughtTreeOnSale",
      "type": "event"
    },
    {
      "anonymous": false,
      "inputs": [
        {
          "indexed": false,
          "internalType": "uint256",
          "name": "saleId",
          "type": "uint256"
        }
      ],
      "name": "SaleEnded",
      "type": "event"
    },
    {
      "anonymous": false,
      "inputs": [
        {
          "indexed": true,
          "internalType": "address",
          "name": "from",
          "type": "address"
        },
        {
          "indexed": true,
          "internalType": "address",
          "name": "to",
          "type": "address"
        },
        {
          "indexed": true,
          "internalType": "uint256",
          "name": "tokenId",
          "type": "uint256"
        }
      ],
      "name": "Transfer",
      "type": "event"
    },
    {
      "anonymous": false,
      "inputs": [
        {
          "indexed": false,
          "internalType": "address",
          "name": "saler",
          "type": "address"
        },
        {
          "indexed": false,
          "internalType": "uint256",
          "name": "TreeId",
          "type": "uint256"
        }
      ],
      "name": "TreePutOnSale",
      "type": "event"
    },
    {
      "anonymous": false,
      "inputs": [
        {
          "indexed": false,
          "internalType": "address",
          "name": "requesting",
          "type": "address"
        }
      ],
      "name": "TreeRequested",
      "type": "event"
    },
    {
      "inputs": [
        {
          "internalType": "address",
          "name": "to",
          "type": "address"
        },
        {
          "internalType": "uint256",
          "name": "tokenId",
          "type": "uint256"
        }
      ],
      "name": "approve",
      "outputs": [],
      "stateMutability": "nonpayable",
      "type": "function"
    },
    {
      "inputs": [
        {
          "internalType": "address",
          "name": "owner",
          "type": "address"
        }
      ],
      "name": "balanceOf",
      "outputs": [
        {
          "internalType": "uint256",
          "name": "",
          "type": "uint256"
        }
      ],
      "stateMutability": "view",
      "type": "function",
      "constant": true
    },
    {
      "inputs": [
        {
          "internalType": "uint256",
          "name": "tokenId",
          "type": "uint256"
        }
      ],
      "name": "getApproved",
      "outputs": [
        {
          "internalType": "address",
          "name": "",
          "type": "address"
        }
      ],
      "stateMutability": "view",
      "type": "function",
      "constant": true
    },
    {
      "inputs": [
        {
          "internalType": "address",
          "name": "owner",
          "type": "address"
        },
        {
          "internalType": "address",
          "name": "operator",
          "type": "address"
        }
      ],
      "name": "isApprovedForAll",
      "outputs": [
        {
          "internalType": "bool",
          "name": "",
          "type": "bool"
        }
      ],
      "stateMutability": "view",
      "type": "function",
      "constant": true
    },
    {
      "inputs": [
        {
          "internalType": "uint256",
          "name": "",
          "type": "uint256"
        }
      ],
      "name": "isOnSale",
      "outputs": [
        {
          "internalType": "bool",
          "name": "",
          "type": "bool"
        }
      ],
      "stateMutability": "view",
      "type": "function",
      "constant": true
    },
    {
      "inputs": [],
      "name": "name",
      "outputs": [
        {
          "internalType": "string",
          "name": "",
          "type": "string"
        }
      ],
      "stateMutability": "view",
      "type": "function",
      "constant": true
    },
    {
      "inputs": [],
      "name": "newTokenId",
      "outputs": [
        {
          "internalType": "uint256",
          "name": "",
          "type": "uint256"
        }
      ],
      "stateMutability": "view",
      "type": "function",
      "constant": true
    },
    {
      "inputs": [],
      "name": "owner",
      "outputs": [
        {
          "internalType": "address payable",
          "name": "",
          "type": "address"
        }
      ],
      "stateMutability": "view",
      "type": "function",
      "constant": true
    },
    {
      "inputs": [
        {
          "internalType": "uint256",
          "name": "tokenId",
          "type": "uint256"
        }
      ],
      "name": "ownerOf",
      "outputs": [
        {
          "internalType": "address",
          "name": "",
          "type": "address"
        }
      ],
      "stateMutability": "view",
      "type": "function",
      "constant": true
    },
    {
      "inputs": [
        {
          "internalType": "address",
          "name": "",
          "type": "address"
        }
      ],
      "name": "ownerToFunds",
      "outputs": [
        {
          "internalType": "uint256",
          "name": "",
          "type": "uint256"
        }
      ],
      "stateMutability": "view",
      "type": "function",
      "constant": true
    },
    {
      "inputs": [
        {
          "internalType": "uint256",
          "name": "",
          "type": "uint256"
        }
      ],
      "name": "requests",
      "outputs": [
        {
          "internalType": "address",
          "name": "requesting",
          "type": "address"
        },
        {
          "internalType": "bool",
          "name": "active",
          "type": "bool"
        }
      ],
      "stateMutability": "view",
      "type": "function",
      "constant": true
    },
    {
      "inputs": [
        {
          "internalType": "address",
          "name": "from",
          "type": "address"
        },
        {
          "internalType": "address",
          "name": "to",
          "type": "address"
        },
        {
          "internalType": "uint256",
          "name": "tokenId",
          "type": "uint256"
        }
      ],
      "name": "safeTransferFrom",
      "outputs": [],
      "stateMutability": "nonpayable",
      "type": "function"
    },
    {
      "inputs": [
        {
          "internalType": "address",
          "name": "from",
          "type": "address"
        },
        {
          "internalType": "address",
          "name": "to",
          "type": "address"
        },
        {
          "internalType": "uint256",
          "name": "tokenId",
          "type": "uint256"
        },
        {
          "internalType": "bytes",
          "name": "_data",
          "type": "bytes"
        }
      ],
      "name": "safeTransferFrom",
      "outputs": [],
      "stateMutability": "nonpayable",
      "type": "function"
    },
    {
      "inputs": [
        {
          "internalType": "uint256",
          "name": "",
          "type": "uint256"
        }
      ],
      "name": "sales",
      "outputs": [
        {
          "internalType": "address",
          "name": "owner",
          "type": "address"
        },
        {
          "internalType": "bool",
          "name": "active",
          "type": "bool"
        },
        {
          "internalType": "uint256",
          "name": "TreeId",
          "type": "uint256"
        },
        {
          "internalType": "uint256",
          "name": "valueWei",
          "type": "uint256"
        }
      ],
      "stateMutability": "view",
      "type": "function",
      "constant": true
    },
    {
      "inputs": [
        {
          "internalType": "address",
          "name": "operator",
          "type": "address"
        },
        {
          "internalType": "bool",
          "name": "approved",
          "type": "bool"
        }
      ],
      "name": "setApprovalForAll",
      "outputs": [],
      "stateMutability": "nonpayable",
      "type": "function"
    },
    {
      "inputs": [],
      "name": "symbol",
      "outputs": [
        {
          "internalType": "string",
          "name": "",
          "type": "string"
        }
      ],
      "stateMutability": "view",
      "type": "function",
      "constant": true
    },
    {
      "inputs": [
        {
          "internalType": "uint256",
          "name": "index",
          "type": "uint256"
        }
      ],
      "name": "tokenByIndex",
      "outputs": [
        {
          "internalType": "uint256",
          "name": "",
          "type": "uint256"
        }
      ],
      "stateMutability": "view",
      "type": "function",
      "constant": true
    },
    {
      "inputs": [
        {
          "internalType": "uint256",
          "name": "",
          "type": "uint256"
        }
      ],
      "name": "tokenIdToSaleId",
      "outputs": [
        {
          "internalType": "uint256",
          "name": "",
          "type": "uint256"
        }
      ],
      "stateMutability": "view",
      "type": "function",
      "constant": true
    },
    {
      "inputs": [
        {
          "internalType": "address",
          "name": "owner",
          "type": "address"
        },
        {
          "internalType": "uint256",
          "name": "index",
          "type": "uint256"
        }
      ],
      "name": "tokenOfOwnerByIndex",
      "outputs": [
        {
          "internalType": "uint256",
          "name": "",
          "type": "uint256"
        }
      ],
      "stateMutability": "view",
      "type": "function",
      "constant": true
    },
    {
      "inputs": [
        {
          "internalType": "uint256",
          "name": "tokenId",
          "type": "uint256"
        }
      ],
      "name": "tokenURI",
      "outputs": [
        {
          "internalType": "string",
          "name": "",
          "type": "string"
        }
      ],
      "stateMutability": "view",
      "type": "function",
      "constant": true
    },
    {
      "inputs": [],
      "name": "totalSupply",
      "outputs": [
        {
          "internalType": "uint256",
          "name": "",
          "type": "uint256"
        }
      ],
      "stateMutability": "view",
      "type": "function",
      "constant": true
    },
    {
      "inputs": [
        {
          "internalType": "address",
          "name": "from",
          "type": "address"
        },
        {
          "internalType": "address",
          "name": "to",
          "type": "address"
        },
        {
          "internalType": "uint256",
          "name": "tokenId",
          "type": "uint256"
        }
      ],
      "name": "transferFrom",
      "outputs": [],
      "stateMutability": "nonpayable",
      "type": "function"
    },
    {
      "inputs": [
        {
          "internalType": "uint256",
          "name": "",
          "type": "uint256"
        }
      ],
      "name": "trees",
      "outputs": [
        {
          "internalType": "string",
          "name": "genes",
          "type": "string"
        },
        {
          "internalType": "uint256",
          "name": "birthdate",
          "type": "uint256"
        }
      ],
      "stateMutability": "view",
      "type": "function",
      "constant": true
    },
    {
      "inputs": [],
      "name": "withdraw",
      "outputs": [],
      "stateMutability": "nonpayable",
      "type": "function"
    },
    {
      "inputs": [
        {
          "internalType": "uint256",
          "name": "_treeId",
          "type": "uint256"
        },
        {
          "internalType": "uint256",
          "name": "_valueWei",
          "type": "uint256"
        }
      ],
      "name": "putTreeOnSale",
      "outputs": [],
      "stateMutability": "nonpayable",
      "type": "function"
    },
    {
      "inputs": [
        {
          "internalType": "uint256",
          "name": "_saleId",
          "type": "uint256"
        }
      ],
      "name": "buyTree",
      "outputs": [],
      "stateMutability": "payable",
      "type": "function",
      "payable": true
    },
    {
      "inputs": [
        {
          "internalType": "uint256",
          "name": "_saleId",
          "type": "uint256"
        }
      ],
      "name": "endSale",
      "outputs": [],
      "stateMutability": "nonpayable",
      "type": "function"
    },
    {
      "inputs": [],
      "name": "requestTree",
      "outputs": [],
      "stateMutability": "payable",
      "type": "function",
      "payable": true
    },
    {
      "inputs": [
        {
          "internalType": "string",
          "name": "_genes",
          "type": "string"
        },
        {
          "internalType": "uint256",
          "name": "birthdate",
          "type": "uint256"
        }
      ],
      "name": "mintTree",
      "outputs": [],
      "stateMutability": "nonpayable",
      "type": "function"
    },
    {
      "inputs": [
        {
          "internalType": "bytes4",
          "name": "interfaceId",
          "type": "bytes4"
        }
      ],
      "name": "supportsInterface",
      "outputs": [
        {
          "internalType": "bool",
          "name": "",
          "type": "bool"
        }
      ],
      "stateMutability": "view",
      "type": "function",
      "constant": true
    }
  ],
  "bytecode": "0x60806040527f0123456789abcdef0123456789abcdef0123456789abcdef0123456789abcdef60001b600a553480156200003857600080fd5b506040518060400160405280600481526020017f54726565000000000000000000000000000000000000000000000000000000008152506040518060400160405280600381526020017f54726500000000000000000000000000000000000000000000000000000000008152508160009080519060200190620000bd92919062000128565b508060019080519060200190620000d692919062000128565b50505033600c60006101000a81548173ffffffffffffffffffffffffffffffffffffffff021916908373ffffffffffffffffffffffffffffffffffffffff1602179055506000600b819055506200023d565b8280546200013690620001d8565b90600052602060002090601f0160209004810192826200015a5760008555620001a6565b82601f106200017557805160ff1916838001178555620001a6565b82800160010185558215620001a6579182015b82811115620001a557825182559160200191906001019062000188565b5b509050620001b59190620001b9565b5090565b5b80821115620001d4576000816000905550600101620001ba565b5090565b60006002820490506001821680620001f157607f821691505b602082108114156200020857620002076200020e565b5b50919050565b7f4e487b7100000000000000000000000000000000000000000000000000000000600052602260045260246000fd5b614a26806200024d6000396000f3fe6080604052600436106101cd5760003560e01c80637a508022116100f7578063b5bdf32011610095578063ca24138f11610064578063ca24138f146106b6578063e985e9c5146106d2578063efac52471461070f578063f0f2805f1461074c576101cd565b8063b5bdf320146105e7578063b5f522f714610610578063b88d4fde14610650578063c87b56dd14610679576101cd565b8063957499b2116100d1578063957499b21461054c57806395d89b4114610589578063a22cb465146105b4578063ac12cf4c146105dd576101cd565b80637a508022146104a557806381d12c58146104e35780638da5cb5b14610521576101cd565b80632f745c591161016f5780634f6ccce71161013e5780634f6ccce7146103c55780636352211e1461040257806370a082311461043f57806379f3b4811461047c576101cd565b80632f745c591461031d578063340754ed1461035a5780633ccfd60b1461038557806342842e0e1461039c576101cd565b8063081812fc116101ab578063081812fc14610263578063095ea7b3146102a057806318160ddd146102c957806323b872dd146102f4576101cd565b806301ffc9a7146101d257806304d1a8461461020f57806306fdde0314610238575b600080fd5b3480156101de57600080fd5b506101f960048036038101906101f4919061367e565b610789565b604051610206919061423c565b60405180910390f35b34801561021b57600080fd5b5061023660048036038101906102319190613724565b61079b565b005b34801561024457600080fd5b5061024d610a23565b60405161025a9190614257565b60405180910390f35b34801561026f57600080fd5b5061028a60048036038101906102859190613724565b610ab5565b60405161029791906140ec565b60405180910390f35b3480156102ac57600080fd5b506102c760048036038101906102c29190613642565b610b3a565b005b3480156102d557600080fd5b506102de610c52565b6040516102eb91906145a9565b60405180910390f35b34801561030057600080fd5b5061031b6004803603810190610316919061353c565b610c5f565b005b34801561032957600080fd5b50610344600480360381019061033f9190613642565b610cbf565b60405161035191906145a9565b60405180910390f35b34801561036657600080fd5b5061036f610d64565b60405161037c91906145a9565b60405180910390f35b34801561039157600080fd5b5061039a610d6a565b005b3480156103a857600080fd5b506103c360048036038101906103be919061353c565b610e3d565b005b3480156103d157600080fd5b506103ec60048036038101906103e79190613724565b610e5d565b6040516103f991906145a9565b60405180910390f35b34801561040e57600080fd5b5061042960048036038101906104249190613724565b610ef4565b60405161043691906140ec565b60405180910390f35b34801561044b57600080fd5b50610466600480360381019061046191906134d7565b610fa6565b60405161047391906145a9565b60405180910390f35b34801561048857600080fd5b506104a3600480360381019061049e919061374d565b61105e565b005b3480156104b157600080fd5b506104cc60048036038101906104c79190613724565b6112a5565b6040516104da929190614279565b60405180910390f35b3480156104ef57600080fd5b5061050a60048036038101906105059190613724565b611361565b6040516105189291906141a5565b60405180910390f35b34801561052d57600080fd5b506105366113be565b6040516105439190614107565b60405180910390f35b34801561055857600080fd5b50610573600480360381019061056e9190613724565b6113e4565b60405161058091906145a9565b60405180910390f35b34801561059557600080fd5b5061059e6113fc565b6040516105ab9190614257565b60405180910390f35b3480156105c057600080fd5b506105db60048036038101906105d69190613606565b61148e565b005b6105e56114a4565b005b3480156105f357600080fd5b5061060e600480360381019061060991906136d0565b611672565b005b34801561061c57600080fd5b5061063760048036038101906106329190613724565b611849565b60405161064794939291906141ce565b60405180910390f35b34801561065c57600080fd5b506106776004803603810190610672919061358b565b6118b6565b005b34801561068557600080fd5b506106a0600480360381019061069b9190613724565b611918565b6040516106ad9190614257565b60405180910390f35b6106d060048036038101906106cb9190613724565b6119bf565b005b3480156106de57600080fd5b506106f960048036038101906106f49190613500565b611f19565b604051610706919061423c565b60405180910390f35b34801561071b57600080fd5b50610736600480360381019061073191906134d7565b611fad565b60405161074391906145a9565b60405180910390f35b34801561075857600080fd5b50610773600480360381019061076e9190613724565b611fc5565b604051610780919061423c565b60405180910390f35b600061079482611fe5565b9050919050565b80601281815481106107d6577f4e487b7100000000000000000000000000000000000000000000000000000000600052603260045260246000fd5b906000526020600020906003020160000160149054906101000a900460ff16610834576040517f08c379a000000000000000000000000000000000000000000000000000000000815260040161082b90614369565b60405180910390fd5b3373ffffffffffffffffffffffffffffffffffffffff1660128381548110610885577f4e487b7100000000000000000000000000000000000000000000000000000000600052603260045260246000fd5b906000526020600020906003020160000160009054906101000a900473ffffffffffffffffffffffffffffffffffffffff1673ffffffffffffffffffffffffffffffffffffffff161461090d576040517f08c379a000000000000000000000000000000000000000000000000000000000815260040161090490614469565b60405180910390fd5b600060128381548110610949577f4e487b7100000000000000000000000000000000000000000000000000000000600052603260045260246000fd5b906000526020600020906003020160000160146101000a81548160ff0219169083151502179055506000600e6000601285815481106109b1577f4e487b7100000000000000000000000000000000000000000000000000000000600052603260045260246000fd5b906000526020600020906003020160010154815260200190815260200160002060006101000a81548160ff0219169083151502179055507f94bb74a9473ae4063ec1e73dc3e35fd4b5abe9cc1e43ad0db84e5358559ccd5a82604051610a1791906145a9565b60405180910390a15050565b606060008054610a329061481b565b80601f0160208091040260200160405190810160405280929190818152602001828054610a5e9061481b565b8015610aab5780601f10610a8057610100808354040283529160200191610aab565b820191906000526020600020905b815481529060010190602001808311610a8e57829003601f168201915b5050505050905090565b6000610ac08261205f565b610aff576040517f08c379a0000000000000000000000000000000000000000000000000000000008152600401610af690614449565b60405180910390fd5b6004600083815260200190815260200160002060009054906101000a900473ffffffffffffffffffffffffffffffffffffffff169050919050565b6000610b4582610ef4565b90508073ffffffffffffffffffffffffffffffffffffffff168373ffffffffffffffffffffffffffffffffffffffff161415610bb6576040517f08c379a0000000000000000000000000000000000000000000000000000000008152600401610bad90614509565b60405180910390fd5b8073ffffffffffffffffffffffffffffffffffffffff16610bd56120cb565b73ffffffffffffffffffffffffffffffffffffffff161480610c045750610c0381610bfe6120cb565b611f19565b5b610c43576040517f08c379a0000000000000000000000000000000000000000000000000000000008152600401610c3a906143c9565b60405180910390fd5b610c4d83836120d3565b505050565b6000600880549050905090565b610c70610c6a6120cb565b8261218c565b610caf576040517f08c379a0000000000000000000000000000000000000000000000000000000008152600401610ca690614529565b60405180910390fd5b610cba83838361226a565b505050565b6000610cca83610fa6565b8210610d0b576040517f08c379a0000000000000000000000000000000000000000000000000000000008152600401610d02906142a9565b60405180910390fd5b600660008473ffffffffffffffffffffffffffffffffffffffff1673ffffffffffffffffffffffffffffffffffffffff168152602001908152602001600020600083815260200190815260200160002054905092915050565b600b5481565b6000600f60003373ffffffffffffffffffffffffffffffffffffffff1673ffffffffffffffffffffffffffffffffffffffff1681526020019081526020016000205490506000600f60003373ffffffffffffffffffffffffffffffffffffffff1673ffffffffffffffffffffffffffffffffffffffff168152602001908152602001600020819055503373ffffffffffffffffffffffffffffffffffffffff166108fc829081150290604051600060405180830381858888f19350505050158015610e39573d6000803e3d6000fd5b5050565b610e58838383604051806020016040528060008152506118b6565b505050565b6000610e67610c52565b8210610ea8576040517f08c379a0000000000000000000000000000000000000000000000000000000008152600401610e9f90614589565b60405180910390fd5b60088281548110610ee2577f4e487b7100000000000000000000000000000000000000000000000000000000600052603260045260246000fd5b90600052602060002001549050919050565b6000806002600084815260200190815260200160002060009054906101000a900473ffffffffffffffffffffffffffffffffffffffff169050600073ffffffffffffffffffffffffffffffffffffffff168173ffffffffffffffffffffffffffffffffffffffff161415610f9d576040517f08c379a0000000000000000000000000000000000000000000000000000000008152600401610f9490614409565b60405180910390fd5b80915050919050565b60008073ffffffffffffffffffffffffffffffffffffffff168273ffffffffffffffffffffffffffffffffffffffff161415611017576040517f08c379a000000000000000000000000000000000000000000000000000000000815260040161100e906143e9565b60405180910390fd5b600360008373ffffffffffffffffffffffffffffffffffffffff1673ffffffffffffffffffffffffffffffffffffffff168152602001908152602001600020549050919050565b813373ffffffffffffffffffffffffffffffffffffffff1661107f82610ef4565b73ffffffffffffffffffffffffffffffffffffffff16146110d5576040517f08c379a00000000000000000000000000000000000000000000000000000000081526004016110cc90614389565b60405180910390fd5b600e600084815260200190815260200160002060009054906101000a900460ff1615611136576040517f08c379a000000000000000000000000000000000000000000000000000000000815260040161112d906144e9565b60405180910390fd5b600060405180608001604052803373ffffffffffffffffffffffffffffffffffffffff1681526020016001151581526020018581526020018481525090506001600e600086815260200190815260200160002060006101000a81548160ff021916908315150217905550601280549050600d600086815260200190815260200160002081905550601281908060018154018082558091505060019003906000526020600020906003020160009091909190915060008201518160000160006101000a81548173ffffffffffffffffffffffffffffffffffffffff021916908373ffffffffffffffffffffffffffffffffffffffff16021790555060208201518160000160146101000a81548160ff021916908315150217905550604082015181600101556060820151816002015550507f0e25269d6b92e3d377b7da2a732e65193fb627672a6f7b2e6473def307c624ef3385604051611297929190614213565b60405180910390a150505050565b601181815481106112b557600080fd5b90600052602060002090600202016000915090508060000180546112d89061481b565b80601f01602080910402602001604051908101604052809291908181526020018280546113049061481b565b80156113515780601f1061132657610100808354040283529160200191611351565b820191906000526020600020905b81548152906001019060200180831161133457829003601f168201915b5050505050908060010154905082565b6010818154811061137157600080fd5b906000526020600020016000915090508060000160009054906101000a900473ffffffffffffffffffffffffffffffffffffffff16908060000160149054906101000a900460ff16905082565b600c60009054906101000a900473ffffffffffffffffffffffffffffffffffffffff1681565b600d6020528060005260406000206000915090505481565b60606001805461140b9061481b565b80601f01602080910402602001604051908101604052809291908181526020018280546114379061481b565b80156114845780601f1061145957610100808354040283529160200191611484565b820191906000526020600020905b81548152906001019060200180831161146757829003601f168201915b5050505050905090565b6114a06114996120cb565b83836124c6565b5050565b6064600b54106114e9576040517f08c379a00000000000000000000000000000000000000000000000000000000081526004016114e090614549565b60405180910390fd5b67016345785d8a000034146114fd57600080fd5b34600f6000600c60009054906101000a900473ffffffffffffffffffffffffffffffffffffffff1673ffffffffffffffffffffffffffffffffffffffff1673ffffffffffffffffffffffffffffffffffffffff168152602001908152602001600020600082825461156e9190614698565b92505081905550600060405180604001604052803373ffffffffffffffffffffffffffffffffffffffff1681526020016001151581525090506010819080600181540180825580915050600190039060005260206000200160009091909190915060008201518160000160006101000a81548173ffffffffffffffffffffffffffffffffffffffff021916908373ffffffffffffffffffffffffffffffffffffffff16021790555060208201518160000160146101000a81548160ff02191690831515021790555050507f601a6dc87ae6f751d4737768419fcdc1ab318f4cca7722f90c43aa6c175cd6163360405161166791906140ec565b60405180910390a150565b600c60009054906101000a900473ffffffffffffffffffffffffffffffffffffffff1673ffffffffffffffffffffffffffffffffffffffff163373ffffffffffffffffffffffffffffffffffffffff1614611702576040517f08c379a00000000000000000000000000000000000000000000000000000000081526004016116f9906144c9565b60405180910390fd5b6064600b5410611747576040517f08c379a000000000000000000000000000000000000000000000000000000000815260040161173e90614549565b60405180910390fd5b6117bc6010600b5481548110611786577f4e487b7100000000000000000000000000000000000000000000000000000000600052603260045260246000fd5b9060005260206000200160000160009054906101000a900473ffffffffffffffffffffffffffffffffffffffff16600b54612633565b600060405180604001604052808481526020018381525090506011819080600181540180825580915050600190039060005260206000209060020201600090919091909150600082015181600001908051906020019061181d9291906132fb565b506020820151816001015550506001600b600082825461183d9190614698565b92505081905550505050565b6012818154811061185957600080fd5b90600052602060002090600302016000915090508060000160009054906101000a900473ffffffffffffffffffffffffffffffffffffffff16908060000160149054906101000a900460ff16908060010154908060020154905084565b6118c76118c16120cb565b8361218c565b611906576040517f08c379a00000000000000000000000000000000000000000000000000000000081526004016118fd90614529565b60405180910390fd5b61191284848484612651565b50505050565b60606119238261205f565b611962576040517f08c379a0000000000000000000000000000000000000000000000000000000008152600401611959906144a9565b60405180910390fd5b600061196c6126ad565b9050600081511161198c57604051806020016040528060008152506119b7565b80611996846126c4565b6040516020016119a79291906140c8565b6040516020818303038152906040525b915050919050565b80601281815481106119fa577f4e487b7100000000000000000000000000000000000000000000000000000000600052603260045260246000fd5b906000526020600020906003020160000160149054906101000a900460ff16611a58576040517f08c379a0000000000000000000000000000000000000000000000000000000008152600401611a4f90614369565b60405180910390fd5b611aac60128381548110611a95577f4e487b7100000000000000000000000000000000000000000000000000000000600052603260045260246000fd5b906000526020600020906003020160010154610ef4565b73ffffffffffffffffffffffffffffffffffffffff1660128381548110611afc577f4e487b7100000000000000000000000000000000000000000000000000000000600052603260045260246000fd5b906000526020600020906003020160000160009054906101000a900473ffffffffffffffffffffffffffffffffffffffff1673ffffffffffffffffffffffffffffffffffffffff1614611b84576040517f08c379a0000000000000000000000000000000000000000000000000000000008152600401611b7b90614309565b60405180910390fd5b3460128381548110611bbf577f4e487b7100000000000000000000000000000000000000000000000000000000600052603260045260246000fd5b9060005260206000209060030201600201541115611c12576040517f08c379a0000000000000000000000000000000000000000000000000000000008152600401611c0990614569565b60405180910390fd5b34600f600060128581548110611c51577f4e487b7100000000000000000000000000000000000000000000000000000000600052603260045260246000fd5b906000526020600020906003020160000160009054906101000a900473ffffffffffffffffffffffffffffffffffffffff1673ffffffffffffffffffffffffffffffffffffffff1673ffffffffffffffffffffffffffffffffffffffff1681526020019081526020016000206000828254611ccc9190614698565b925050819055506000600e600060128581548110611d13577f4e487b7100000000000000000000000000000000000000000000000000000000600052603260045260246000fd5b906000526020600020906003020160010154815260200190815260200160002060006101000a81548160ff021916908315150217905550600060128381548110611d86577f4e487b7100000000000000000000000000000000000000000000000000000000600052603260045260246000fd5b906000526020600020906003020160000160146101000a81548160ff021916908315150217905550611e6f60128381548110611deb577f4e487b7100000000000000000000000000000000000000000000000000000000600052603260045260246000fd5b906000526020600020906003020160000160009054906101000a900473ffffffffffffffffffffffffffffffffffffffff163360128581548110611e58577f4e487b7100000000000000000000000000000000000000000000000000000000600052603260045260246000fd5b90600052602060002090600302016001015461226a565b7f5769dede23e7f2380cbd4120a3250a285ec4f44b86e5fbd3666ffed56f3c89483360128481548110611ecb577f4e487b7100000000000000000000000000000000000000000000000000000000600052603260045260246000fd5b906000526020600020906003020160000160009054906101000a900473ffffffffffffffffffffffffffffffffffffffff1684604051611f0d93929190614122565b60405180910390a15050565b6000600560008473ffffffffffffffffffffffffffffffffffffffff1673ffffffffffffffffffffffffffffffffffffffff16815260200190815260200160002060008373ffffffffffffffffffffffffffffffffffffffff1673ffffffffffffffffffffffffffffffffffffffff16815260200190815260200160002060009054906101000a900460ff16905092915050565b600f6020528060005260406000206000915090505481565b600e6020528060005260406000206000915054906101000a900460ff1681565b60007f780e9d63000000000000000000000000000000000000000000000000000000007bffffffffffffffffffffffffffffffffffffffffffffffffffffffff1916827bffffffffffffffffffffffffffffffffffffffffffffffffffffffff19161480612058575061205782612871565b5b9050919050565b60008073ffffffffffffffffffffffffffffffffffffffff166002600084815260200190815260200160002060009054906101000a900473ffffffffffffffffffffffffffffffffffffffff1673ffffffffffffffffffffffffffffffffffffffff1614159050919050565b600033905090565b816004600083815260200190815260200160002060006101000a81548173ffffffffffffffffffffffffffffffffffffffff021916908373ffffffffffffffffffffffffffffffffffffffff160217905550808273ffffffffffffffffffffffffffffffffffffffff1661214683610ef4565b73ffffffffffffffffffffffffffffffffffffffff167f8c5be1e5ebec7d5bd14f71427d1e84f3dd0314c0f7b2291e5b200ac8c7c3b92560405160405180910390a45050565b60006121978261205f565b6121d6576040517f08c379a00000000000000000000000000000000000000000000000000000000081526004016121cd906143a9565b60405180910390fd5b60006121e183610ef4565b90508073ffffffffffffffffffffffffffffffffffffffff168473ffffffffffffffffffffffffffffffffffffffff16148061225057508373ffffffffffffffffffffffffffffffffffffffff1661223884610ab5565b73ffffffffffffffffffffffffffffffffffffffff16145b8061226157506122608185611f19565b5b91505092915050565b8273ffffffffffffffffffffffffffffffffffffffff1661228a82610ef4565b73ffffffffffffffffffffffffffffffffffffffff16146122e0576040517f08c379a00000000000000000000000000000000000000000000000000000000081526004016122d790614489565b60405180910390fd5b600073ffffffffffffffffffffffffffffffffffffffff168273ffffffffffffffffffffffffffffffffffffffff161415612350576040517f08c379a000000000000000000000000000000000000000000000000000000000815260040161234790614329565b60405180910390fd5b61235b838383612953565b6123666000826120d3565b6001600360008573ffffffffffffffffffffffffffffffffffffffff1673ffffffffffffffffffffffffffffffffffffffff16815260200190815260200160002060008282546123b6919061471f565b925050819055506001600360008473ffffffffffffffffffffffffffffffffffffffff1673ffffffffffffffffffffffffffffffffffffffff168152602001908152602001600020600082825461240d9190614698565b92505081905550816002600083815260200190815260200160002060006101000a81548173ffffffffffffffffffffffffffffffffffffffff021916908373ffffffffffffffffffffffffffffffffffffffff160217905550808273ffffffffffffffffffffffffffffffffffffffff168473ffffffffffffffffffffffffffffffffffffffff167fddf252ad1be2c89b69c2b068fc378daa952ba7f163c4a11628f55a4df523b3ef60405160405180910390a4505050565b8173ffffffffffffffffffffffffffffffffffffffff168373ffffffffffffffffffffffffffffffffffffffff161415612535576040517f08c379a000000000000000000000000000000000000000000000000000000000815260040161252c90614349565b60405180910390fd5b80600560008573ffffffffffffffffffffffffffffffffffffffff1673ffffffffffffffffffffffffffffffffffffffff16815260200190815260200160002060008473ffffffffffffffffffffffffffffffffffffffff1673ffffffffffffffffffffffffffffffffffffffff16815260200190815260200160002060006101000a81548160ff0219169083151502179055508173ffffffffffffffffffffffffffffffffffffffff168373ffffffffffffffffffffffffffffffffffffffff167f17307eab39ab6107e8899845ad3d59bd9653f200f220920489ca2b5937696c3183604051612626919061423c565b60405180910390a3505050565b61264d828260405180602001604052806000815250612a2d565b5050565b61265c84848461226a565b61266884848484612a88565b6126a7576040517f08c379a000000000000000000000000000000000000000000000000000000000815260040161269e906142c9565b60405180910390fd5b50505050565b606060405180602001604052806000815250905090565b6060600082141561270c576040518060400160405280600181526020017f3000000000000000000000000000000000000000000000000000000000000000815250905061286c565b600082905060005b6000821461273e5780806127279061484d565b915050600a8261273791906146ee565b9150612714565b60008167ffffffffffffffff811115612780577f4e487b7100000000000000000000000000000000000000000000000000000000600052604160045260246000fd5b6040519080825280601f01601f1916602001820160405280156127b25781602001600182028036833780820191505090505b5090505b60008514612865576001826127cb919061471f565b9150600a856127da9190614896565b60306127e69190614698565b60f81b818381518110612822577f4e487b7100000000000000000000000000000000000000000000000000000000600052603260045260246000fd5b60200101907effffffffffffffffffffffffffffffffffffffffffffffffffffffffffffff1916908160001a905350600a8561285e91906146ee565b94506127b6565b8093505050505b919050565b60007f80ac58cd000000000000000000000000000000000000000000000000000000007bffffffffffffffffffffffffffffffffffffffffffffffffffffffff1916827bffffffffffffffffffffffffffffffffffffffffffffffffffffffff1916148061293c57507f5b5e139f000000000000000000000000000000000000000000000000000000007bffffffffffffffffffffffffffffffffffffffffffffffffffffffff1916827bffffffffffffffffffffffffffffffffffffffffffffffffffffffff1916145b8061294c575061294b82612c1f565b5b9050919050565b600e600082815260200190815260200160002060009054906101000a900460ff1615612a1d576000600e600083815260200190815260200160002060006101000a81548160ff02191690831515021790555060006012600d600084815260200190815260200160002054815481106129f4577f4e487b7100000000000000000000000000000000000000000000000000000000600052603260045260246000fd5b906000526020600020906003020160000160146101000a81548160ff0219169083151502179055505b612a28838383612c89565b505050565b612a378383612d9d565b612a446000848484612a88565b612a83576040517f08c379a0000000000000000000000000000000000000000000000000000000008152600401612a7a906142c9565b60405180910390fd5b505050565b6000612aa98473ffffffffffffffffffffffffffffffffffffffff16612f6b565b15612c12578373ffffffffffffffffffffffffffffffffffffffff1663150b7a02612ad26120cb565b8786866040518563ffffffff1660e01b8152600401612af49493929190614159565b602060405180830381600087803b158015612b0e57600080fd5b505af1925050508015612b3f57506040513d601f19601f82011682018060405250810190612b3c91906136a7565b60015b612bc2573d8060008114612b6f576040519150601f19603f3d011682016040523d82523d6000602084013e612b74565b606091505b50600081511415612bba576040517f08c379a0000000000000000000000000000000000000000000000000000000008152600401612bb1906142c9565b60405180910390fd5b805181602001fd5b63150b7a0260e01b7bffffffffffffffffffffffffffffffffffffffffffffffffffffffff1916817bffffffffffffffffffffffffffffffffffffffffffffffffffffffff191614915050612c17565b600190505b949350505050565b60007f01ffc9a7000000000000000000000000000000000000000000000000000000007bffffffffffffffffffffffffffffffffffffffffffffffffffffffff1916827bffffffffffffffffffffffffffffffffffffffffffffffffffffffff1916149050919050565b612c94838383612f7e565b600073ffffffffffffffffffffffffffffffffffffffff168373ffffffffffffffffffffffffffffffffffffffff161415612cd757612cd281612f83565b612d16565b8173ffffffffffffffffffffffffffffffffffffffff168373ffffffffffffffffffffffffffffffffffffffff1614612d1557612d148382612fcc565b5b5b600073ffffffffffffffffffffffffffffffffffffffff168273ffffffffffffffffffffffffffffffffffffffff161415612d5957612d5481613139565b612d98565b8273ffffffffffffffffffffffffffffffffffffffff168273ffffffffffffffffffffffffffffffffffffffff1614612d9757612d96828261327c565b5b5b505050565b600073ffffffffffffffffffffffffffffffffffffffff168273ffffffffffffffffffffffffffffffffffffffff161415612e0d576040517f08c379a0000000000000000000000000000000000000000000000000000000008152600401612e0490614429565b60405180910390fd5b612e168161205f565b15612e56576040517f08c379a0000000000000000000000000000000000000000000000000000000008152600401612e4d906142e9565b60405180910390fd5b612e6260008383612953565b6001600360008473ffffffffffffffffffffffffffffffffffffffff1673ffffffffffffffffffffffffffffffffffffffff1681526020019081526020016000206000828254612eb29190614698565b92505081905550816002600083815260200190815260200160002060006101000a81548173ffffffffffffffffffffffffffffffffffffffff021916908373ffffffffffffffffffffffffffffffffffffffff160217905550808273ffffffffffffffffffffffffffffffffffffffff16600073ffffffffffffffffffffffffffffffffffffffff167fddf252ad1be2c89b69c2b068fc378daa952ba7f163c4a11628f55a4df523b3ef60405160405180910390a45050565b600080823b905060008111915050919050565b505050565b6008805490506009600083815260200190815260200160002081905550600881908060018154018082558091505060019003906000526020600020016000909190919091505550565b60006001612fd984610fa6565b612fe3919061471f565b90506000600760008481526020019081526020016000205490508181146130c8576000600660008673ffffffffffffffffffffffffffffffffffffffff1673ffffffffffffffffffffffffffffffffffffffff168152602001908152602001600020600084815260200190815260200160002054905080600660008773ffffffffffffffffffffffffffffffffffffffff1673ffffffffffffffffffffffffffffffffffffffff168152602001908152602001600020600084815260200190815260200160002081905550816007600083815260200190815260200160002081905550505b6007600084815260200190815260200160002060009055600660008573ffffffffffffffffffffffffffffffffffffffff1673ffffffffffffffffffffffffffffffffffffffff16815260200190815260200160002060008381526020019081526020016000206000905550505050565b6000600160088054905061314d919061471f565b90506000600960008481526020019081526020016000205490506000600883815481106131a3577f4e487b7100000000000000000000000000000000000000000000000000000000600052603260045260246000fd5b9060005260206000200154905080600883815481106131eb577f4e487b7100000000000000000000000000000000000000000000000000000000600052603260045260246000fd5b906000526020600020018190555081600960008381526020019081526020016000208190555060096000858152602001908152602001600020600090556008805480613260577f4e487b7100000000000000000000000000000000000000000000000000000000600052603160045260246000fd5b6001900381819060005260206000200160009055905550505050565b600061328783610fa6565b905081600660008573ffffffffffffffffffffffffffffffffffffffff1673ffffffffffffffffffffffffffffffffffffffff168152602001908152602001600020600083815260200190815260200160002081905550806007600084815260200190815260200160002081905550505050565b8280546133079061481b565b90600052602060002090601f0160209004810192826133295760008555613370565b82601f1061334257805160ff1916838001178555613370565b82800160010185558215613370579182015b8281111561336f578251825591602001919060010190613354565b5b50905061337d9190613381565b5090565b5b8082111561339a576000816000905550600101613382565b5090565b60006133b16133ac846145f5565b6145c4565b9050828152602081018484840111156133c957600080fd5b6133d48482856147d9565b509392505050565b60006133ef6133ea84614625565b6145c4565b90508281526020810184848401111561340757600080fd5b6134128482856147d9565b509392505050565b60008135905061342981614994565b92915050565b60008135905061343e816149ab565b92915050565b600081359050613453816149c2565b92915050565b600081519050613468816149c2565b92915050565b600082601f83011261347f57600080fd5b813561348f84826020860161339e565b91505092915050565b600082601f8301126134a957600080fd5b81356134b98482602086016133dc565b91505092915050565b6000813590506134d1816149d9565b92915050565b6000602082840312156134e957600080fd5b60006134f78482850161341a565b91505092915050565b6000806040838503121561351357600080fd5b60006135218582860161341a565b92505060206135328582860161341a565b9150509250929050565b60008060006060848603121561355157600080fd5b600061355f8682870161341a565b93505060206135708682870161341a565b9250506040613581868287016134c2565b9150509250925092565b600080600080608085870312156135a157600080fd5b60006135af8782880161341a565b94505060206135c08782880161341a565b93505060406135d1878288016134c2565b925050606085013567ffffffffffffffff8111156135ee57600080fd5b6135fa8782880161346e565b91505092959194509250565b6000806040838503121561361957600080fd5b60006136278582860161341a565b92505060206136388582860161342f565b9150509250929050565b6000806040838503121561365557600080fd5b60006136638582860161341a565b9250506020613674858286016134c2565b9150509250929050565b60006020828403121561369057600080fd5b600061369e84828501613444565b91505092915050565b6000602082840312156136b957600080fd5b60006136c784828501613459565b91505092915050565b600080604083850312156136e357600080fd5b600083013567ffffffffffffffff8111156136fd57600080fd5b61370985828601613498565b925050602061371a858286016134c2565b9150509250929050565b60006020828403121561373657600080fd5b6000613744848285016134c2565b91505092915050565b6000806040838503121561376057600080fd5b600061376e858286016134c2565b925050602061377f858286016134c2565b9150509250929050565b61379281614765565b82525050565b6137a181614753565b82525050565b6137b081614777565b82525050565b60006137c182614655565b6137cb818561466b565b93506137db8185602086016147e8565b6137e481614983565b840191505092915050565b60006137fa82614660565b613804818561467c565b93506138148185602086016147e8565b61381d81614983565b840191505092915050565b600061383382614660565b61383d818561468d565b935061384d8185602086016147e8565b80840191505092915050565b6000613866602b8361467c565b91507f455243373231456e756d657261626c653a206f776e657220696e646578206f7560008301527f74206f6620626f756e64730000000000000000000000000000000000000000006020830152604082019050919050565b60006138cc60328361467c565b91507f4552433732313a207472616e7366657220746f206e6f6e20455243373231526560008301527f63656976657220696d706c656d656e74657200000000000000000000000000006020830152604082019050919050565b6000613932601c8361467c565b91507f4552433732313a20746f6b656e20616c7265616479206d696e746564000000006000830152602082019050919050565b6000613972603f8361467c565b91507f506572736f6e2077686f2070757420746861742074726565206f6e2073616c6560008301527f206973206e6f7420746869732074726565206f776e657220616e796d6f7265006020830152604082019050919050565b60006139d860248361467c565b91507f4552433732313a207472616e7366657220746f20746865207a65726f2061646460008301527f72657373000000000000000000000000000000000000000000000000000000006020830152604082019050919050565b6000613a3e60198361467c565b91507f4552433732313a20617070726f766520746f2063616c6c6572000000000000006000830152602082019050919050565b6000613a7e60128361467c565b91507f53616c65206973206e6f742061637469766500000000000000000000000000006000830152602082019050919050565b6000613abe601e8361467c565b91507f596f7520617265206e6f74206f776e6572206f662074686973207472656500006000830152602082019050919050565b6000613afe602c8361467c565b91507f4552433732313a206f70657261746f7220717565727920666f72206e6f6e657860008301527f697374656e7420746f6b656e00000000000000000000000000000000000000006020830152604082019050919050565b6000613b6460388361467c565b91507f4552433732313a20617070726f76652063616c6c6572206973206e6f74206f7760008301527f6e6572206e6f7220617070726f76656420666f7220616c6c00000000000000006020830152604082019050919050565b6000613bca602a8361467c565b91507f4552433732313a2062616c616e636520717565727920666f7220746865207a6560008301527f726f2061646472657373000000000000000000000000000000000000000000006020830152604082019050919050565b6000613c3060298361467c565b91507f4552433732313a206f776e657220717565727920666f72206e6f6e657869737460008301527f656e7420746f6b656e00000000000000000000000000000000000000000000006020830152604082019050919050565b6000613c9660208361467c565b91507f4552433732313a206d696e7420746f20746865207a65726f20616464726573736000830152602082019050919050565b6000613cd6602c8361467c565b91507f4552433732313a20617070726f76656420717565727920666f72206e6f6e657860008301527f697374656e7420746f6b656e00000000000000000000000000000000000000006020830152604082019050919050565b6000613d3c601e8361467c565b91507f796f7520617265206e6f74206f776e6572206f6620746869732073616c6500006000830152602082019050919050565b6000613d7c60298361467c565b91507f4552433732313a207472616e73666572206f6620746f6b656e2074686174206960008301527f73206e6f74206f776e00000000000000000000000000000000000000000000006020830152604082019050919050565b6000613de2602f8361467c565b91507f4552433732314d657461646174613a2055524920717565727920666f72206e6f60008301527f6e6578697374656e7420746f6b656e00000000000000000000000000000000006020830152604082019050919050565b6000613e48603e8361467c565b91507f4f6e6c79206f776e6572206f662074686520736d61727420636f6e747261637460008301527f2063616e2063616c6c20746869732066756e6374696f6e203b282828282800006020830152604082019050919050565b6000613eae60108361467c565b91507f6a657374206a757a206e612073616c75000000000000000000000000000000006000830152602082019050919050565b6000613eee60218361467c565b91507f4552433732313a20617070726f76616c20746f2063757272656e74206f776e6560008301527f72000000000000000000000000000000000000000000000000000000000000006020830152604082019050919050565b6000613f5460318361467c565b91507f4552433732313a207472616e736665722063616c6c6572206973206e6f74206f60008301527f776e6572206e6f7220617070726f7665640000000000000000000000000000006020830152604082019050919050565b6000613fba602c8361467c565b91507f5a6d696e746f77616e6f206a757a2077737a7973746b6965204e465420647a6960008301527f656b756a656d79203a33333300000000000000000000000000000000000000006020830152604082019050919050565b600061402060108361467c565b91507f6e6f7420656e6f7567682066756e6473000000000000000000000000000000006000830152602082019050919050565b6000614060602c8361467c565b91507f455243373231456e756d657261626c653a20676c6f62616c20696e646578206f60008301527f7574206f6620626f756e647300000000000000000000000000000000000000006020830152604082019050919050565b6140c2816147cf565b82525050565b60006140d48285613828565b91506140e08284613828565b91508190509392505050565b60006020820190506141016000830184613798565b92915050565b600060208201905061411c6000830184613789565b92915050565b60006060820190506141376000830186613798565b6141446020830185613798565b61415160408301846140b9565b949350505050565b600060808201905061416e6000830187613798565b61417b6020830186613798565b61418860408301856140b9565b818103606083015261419a81846137b6565b905095945050505050565b60006040820190506141ba6000830185613798565b6141c760208301846137a7565b9392505050565b60006080820190506141e36000830187613798565b6141f060208301866137a7565b6141fd60408301856140b9565b61420a60608301846140b9565b95945050505050565b60006040820190506142286000830185613798565b61423560208301846140b9565b9392505050565b600060208201905061425160008301846137a7565b92915050565b6000602082019050818103600083015261427181846137ef565b905092915050565b6000604082019050818103600083015261429381856137ef565b90506142a260208301846140b9565b9392505050565b600060208201905081810360008301526142c281613859565b9050919050565b600060208201905081810360008301526142e2816138bf565b9050919050565b6000602082019050818103600083015261430281613925565b9050919050565b6000602082019050818103600083015261432281613965565b9050919050565b60006020820190508181036000830152614342816139cb565b9050919050565b6000602082019050818103600083015261436281613a31565b9050919050565b6000602082019050818103600083015261438281613a71565b9050919050565b600060208201905081810360008301526143a281613ab1565b9050919050565b600060208201905081810360008301526143c281613af1565b9050919050565b600060208201905081810360008301526143e281613b57565b9050919050565b6000602082019050818103600083015261440281613bbd565b9050919050565b6000602082019050818103600083015261442281613c23565b9050919050565b6000602082019050818103600083015261444281613c89565b9050919050565b6000602082019050818103600083015261446281613cc9565b9050919050565b6000602082019050818103600083015261448281613d2f565b9050919050565b600060208201905081810360008301526144a281613d6f565b9050919050565b600060208201905081810360008301526144c281613dd5565b9050919050565b600060208201905081810360008301526144e281613e3b565b9050919050565b6000602082019050818103600083015261450281613ea1565b9050919050565b6000602082019050818103600083015261452281613ee1565b9050919050565b6000602082019050818103600083015261454281613f47565b9050919050565b6000602082019050818103600083015261456281613fad565b9050919050565b6000602082019050818103600083015261458281614013565b9050919050565b600060208201905081810360008301526145a281614053565b9050919050565b60006020820190506145be60008301846140b9565b92915050565b6000604051905081810181811067ffffffffffffffff821117156145eb576145ea614954565b5b8060405250919050565b600067ffffffffffffffff8211156146105761460f614954565b5b601f19601f8301169050602081019050919050565b600067ffffffffffffffff8211156146405761463f614954565b5b601f19601f8301169050602081019050919050565b600081519050919050565b600081519050919050565b600082825260208201905092915050565b600082825260208201905092915050565b600081905092915050565b60006146a3826147cf565b91506146ae836147cf565b9250827fffffffffffffffffffffffffffffffffffffffffffffffffffffffffffffffff038211156146e3576146e26148c7565b5b828201905092915050565b60006146f9826147cf565b9150614704836147cf565b925082614714576147136148f6565b5b828204905092915050565b600061472a826147cf565b9150614735836147cf565b925082821015614748576147476148c7565b5b828203905092915050565b600061475e826147af565b9050919050565b6000614770826147af565b9050919050565b60008115159050919050565b60007fffffffff0000000000000000000000000000000000000000000000000000000082169050919050565b600073ffffffffffffffffffffffffffffffffffffffff82169050919050565b6000819050919050565b82818337600083830152505050565b60005b838110156148065780820151818401526020810190506147eb565b83811115614815576000848401525b50505050565b6000600282049050600182168061483357607f821691505b6020821081141561484757614846614925565b5b50919050565b6000614858826147cf565b91507fffffffffffffffffffffffffffffffffffffffffffffffffffffffffffffffff82141561488b5761488a6148c7565b5b600182019050919050565b60006148a1826147cf565b91506148ac836147cf565b9250826148bc576148bb6148f6565b5b828206905092915050565b7f4e487b7100000000000000000000000000000000000000000000000000000000600052601160045260246000fd5b7f4e487b7100000000000000000000000000000000000000000000000000000000600052601260045260246000fd5b7f4e487b7100000000000000000000000000000000000000000000000000000000600052602260045260246000fd5b7f4e487b7100000000000000000000000000000000000000000000000000000000600052604160045260246000fd5b6000601f19601f8301169050919050565b61499d81614753565b81146149a857600080fd5b50565b6149b481614777565b81146149bf57600080fd5b50565b6149cb81614783565b81146149d657600080fd5b50565b6149e2816147cf565b81146149ed57600080fd5b5056fea2646970667358221220c9f97540979eb49391abd5234192f19e28a5d4d222b55b0eb10b45604ccf11e764736f6c63430008000033",
  "immutableReferences": {},
  "source": "pragma solidity ^0.8.0;\r\n\r\nimport \"@openzeppelin/contracts/token/ERC721/extensions/ERC721Enumerable.sol\";\r\n\r\ncontract HelloWorld is ERC721,ERC721Enumerable{\r\n\r\n\r\n    event TreeRequested(address requesting);\r\n\r\n    event TreePutOnSale(address saler,uint TreeId);\r\n\r\n    event BoughtTreeOnSale(address buyer, address seller,uint saleId);\r\n\r\n    event SaleEnded(uint saleId);\r\n\r\n    bytes32 PROVANANCE_HASH = 0x0123456789abcdef0123456789abcdef0123456789abcdef0123456789abcdef;\r\n\r\n    //id of the new token\r\n    uint public newTokenId;\r\n\r\n    address payable public  owner;\r\n\r\n    mapping(uint => uint) public tokenIdToSaleId;\r\n    mapping(uint => bool) public isOnSale;\r\n\r\n    modifier onlyOwner() {\r\n        require(msg.sender == owner, \"Only owner of the smart contract can call this function ;(((((\");\r\n        _;\r\n    }\r\n\r\n    modifier isTreeOwner(uint _treeId){\r\n        require(ownerOf(_treeId) == msg.sender, \"You are not owner of this tree\");\r\n        _;\r\n    }\r\n\r\n    modifier isSaleActive(uint _saleId){\r\n        require(sales[_saleId].active, \"Sale is not active\");\r\n        _;\r\n    }\r\n\r\n    modifier isUnderMax(){\r\n        require(newTokenId<100,\"Zmintowano juz wszystkie NFT dziekujemy :333\");\r\n        _;\r\n    }\r\n\r\n    struct Tree{\r\n        string genes;\r\n        uint256 birthdate;    \r\n    }\r\n\r\n    struct Sale {\r\n        address owner;\r\n        bool active;\r\n        uint TreeId;\r\n        uint valueWei;\r\n    }\r\n\r\n    struct Request{\r\n        address requesting;\r\n        bool active;\r\n    }\r\n    \r\n    mapping(address=>uint) public ownerToFunds;\r\n\r\n    Request[] public requests;\r\n\r\n    Tree[] public trees;\r\n\r\n    Sale[] public sales;\r\n\r\n    //Funkcja ktora pozwala adresowi ktory wywoluje ta funkcje przelac do siebie nalezne mu ETH\r\n    function withdraw() external{\r\n        uint toPay = ownerToFunds[msg.sender];\r\n        ownerToFunds[msg.sender] = 0;\r\n        payable(msg.sender).transfer(toPay); \r\n    }\r\n\r\n    //Osoba moze wystawic drzewko o danym Id po danej cenie jesli jest jego wlascicielem\r\n    //jesli jest on sale to nie mozesz \r\n    function putTreeOnSale(uint _treeId, uint _valueWei) external isTreeOwner(_treeId){\r\n        require(!isOnSale[_treeId],\"jest juz na salu\");\r\n        Sale memory sale = Sale(msg.sender, true,_treeId,_valueWei);\r\n        isOnSale[_treeId] =true;\r\n        tokenIdToSaleId[_treeId] = sales.length;\r\n        sales.push(sale);\r\n        emit TreePutOnSale(msg.sender, _treeId);\r\n    }\r\n\r\n    //Mozesz kupic nft o danym Id po wystawionej cenie jesli jest na sprzedaz\r\n    function buyTree(uint _saleId) external payable isSaleActive(_saleId){\r\n        require(sales[_saleId].owner == ownerOf(sales[_saleId].TreeId), \"Person who put that tree on sale is not this tree owner anymore\");\r\n        require(sales[_saleId].valueWei <= msg.value, \"not enough funds\");\r\n        ownerToFunds[sales[_saleId].owner] += msg.value;\r\n        isOnSale[sales[_saleId].TreeId] = false;\r\n        sales[_saleId].active = false;\r\n        _transfer(sales[_saleId].owner,msg.sender , sales[_saleId].TreeId);\r\n        emit BoughtTreeOnSale(msg.sender, sales[_saleId].owner, _saleId);\r\n    }\r\n\r\n    //jesli jednak nie chcesz sprzedac swojego drzewka mozesz \"zdjac je z \"marketu\"\r\n    function endSale(uint _saleId) external isSaleActive(_saleId) {\r\n        require(sales[_saleId].owner == msg.sender, \"you are not owner of this sale\");\r\n        sales[_saleId].active = false;\r\n        isOnSale[sales[_saleId].TreeId] = false;\r\n        emit SaleEnded(_saleId);\r\n    }\r\n    //Uzytkownik prosi o utworzenie Nft dla niego i my je potem mintujemy\r\n    function requestTree() external payable isUnderMax(){\r\n        require(msg.value == 0.1 ether);\r\n        ownerToFunds[owner] += msg.value;\r\n        Request memory request = Request(msg.sender,true);\r\n        requests.push(request);\r\n        emit TreeRequested(msg.sender);\r\n    }\r\n\r\n    constructor() ERC721(\"Tree\", \"Tre\"){\r\n        owner = payable(msg.sender);\r\n        newTokenId = 0;\r\n    }\r\n    //owner smart contractu tworzy nft i wpisuje geny drzewka ktore ma byc dla uzytkownika ktory ostatni zrequestowal(nwm no pozniej lepiej napisze te komentarze)\r\n    function mintTree(string memory _genes,uint256 birthdate) external onlyOwner() isUnderMax(){\r\n        _safeMint(requests[newTokenId].requesting, newTokenId);\r\n        Tree memory tree = Tree(_genes,birthdate);\r\n        trees.push(tree);\r\n        newTokenId += 1;\r\n    }\r\n\r\n    function _beforeTokenTransfer(address from, address to, uint256 tokenId) \r\n        internal\r\n        override(ERC721, ERC721Enumerable)\r\n    {\r\n        if(isOnSale[tokenId]){\r\n            isOnSale[tokenId] = false;\r\n            sales[tokenIdToSaleId[tokenId]].active = false;\r\n        }\r\n        super._beforeTokenTransfer(from, to, tokenId);\r\n    }\r\n\r\n    function supportsInterface(bytes4 interfaceId)\r\n        public\r\n        view\r\n        override(ERC721, ERC721Enumerable)\r\n        returns (bool)\r\n    {\r\n        return super.supportsInterface(interfaceId);\r\n    }\r\n\r\n\r\n}",
  "sourcePath": "C:\\uczenieSie\\treeGenerator-master\\treeGenerator-master\\contracts\\HelloWorld.sol",
  "compiler": {
    "name": "solc",
    "version": "0.8.0+commit.c7dfd78e.Emscripten.clang"
  },
  "schemaVersion": "3.4.3",
  "updatedAt": "2022-05-17T19:33:07.773Z",
  "networkType": "ethereum",
  "devdoc": {
    "kind": "dev",
    "methods": {
      "approve(address,uint256)": {
        "details": "See {IERC721-approve}."
      },
      "balanceOf(address)": {
        "details": "See {IERC721-balanceOf}."
      },
      "getApproved(uint256)": {
        "details": "See {IERC721-getApproved}."
      },
      "isApprovedForAll(address,address)": {
        "details": "See {IERC721-isApprovedForAll}."
      },
      "name()": {
        "details": "See {IERC721Metadata-name}."
      },
      "ownerOf(uint256)": {
        "details": "See {IERC721-ownerOf}."
      },
      "safeTransferFrom(address,address,uint256)": {
        "details": "See {IERC721-safeTransferFrom}."
      },
      "safeTransferFrom(address,address,uint256,bytes)": {
        "details": "See {IERC721-safeTransferFrom}."
      },
      "setApprovalForAll(address,bool)": {
        "details": "See {IERC721-setApprovalForAll}."
      },
      "symbol()": {
        "details": "See {IERC721Metadata-symbol}."
      },
      "tokenByIndex(uint256)": {
        "details": "See {IERC721Enumerable-tokenByIndex}."
      },
      "tokenOfOwnerByIndex(address,uint256)": {
        "details": "See {IERC721Enumerable-tokenOfOwnerByIndex}."
      },
      "tokenURI(uint256)": {
        "details": "See {IERC721Metadata-tokenURI}."
      },
      "totalSupply()": {
        "details": "See {IERC721Enumerable-totalSupply}."
      },
      "transferFrom(address,address,uint256)": {
        "details": "See {IERC721-transferFrom}."
      }
    },
    "version": 1
  },
  "userdoc": {
    "kind": "user",
    "methods": {},
    "version": 1
  }
}